{"abi":[{"type":"function","name":"COOLDOWN_SECONDS","inputs":[],"outputs":[{"name":"","type":"uint256","internalType":"uint256"}],"stateMutability":"view"},{"type":"function","name":"DISTRIBUTION_END","inputs":[],"outputs":[{"name":"","type":"uint256","internalType":"uint256"}],"stateMutability":"view"},{"type":"function","name":"EMISSION_MANAGER","inputs":[],"outputs":[{"name":"","type":"address","internalType":"address"}],"stateMutability":"view"},{"type":"function","name":"PRECISION","inputs":[],"outputs":[{"name":"","type":"uint8","internalType":"uint8"}],"stateMutability":"view"},{"type":"function","name":"REWARDS_VAULT","inputs":[],"outputs":[{"name":"","type":"address","internalType":"address"}],"stateMutability":"view"},{"type":"function","name":"REWARD_TOKEN","inputs":[],"outputs":[{"name":"","type":"address","internalType":"contract IERC20"}],"stateMutability":"view"},{"type":"function","name":"STAKED_TOKEN","inputs":[],"outputs":[{"name":"","type":"address","internalType":"contract IERC20"}],"stateMutability":"view"},{"type":"function","name":"UNSTAKE_WINDOW","inputs":[],"outputs":[{"name":"","type":"uint256","internalType":"uint256"}],"stateMutability":"view"},{"type":"function","name":"_countsSnapshots","inputs":[{"name":"","type":"address","internalType":"address"}],"outputs":[{"name":"","type":"uint256","internalType":"uint256"}],"stateMutability":"view"},{"type":"function","name":"_governance","inputs":[],"outputs":[{"name":"","type":"address","internalType":"contract ITransferHook"}],"stateMutability":"view"},{"type":"function","name":"_snapshots","inputs":[{"name":"","type":"address","internalType":"address"},{"name":"","type":"uint256","internalType":"uint256"}],"outputs":[{"name":"blockNumber","type":"uint128","internalType":"uint128"},{"name":"value","type":"uint128","internalType":"uint128"}],"stateMutability":"view"},{"type":"function","name":"allowance","inputs":[{"name":"owner","type":"address","internalType":"address"},{"name":"spender","type":"address","internalType":"address"}],"outputs":[{"name":"","type":"uint256","internalType":"uint256"}],"stateMutability":"view"},{"type":"function","name":"approve","inputs":[{"name":"spender","type":"address","internalType":"address"},{"name":"amount","type":"uint256","internalType":"uint256"}],"outputs":[{"name":"","type":"bool","internalType":"bool"}],"stateMutability":"nonpayable"},{"type":"function","name":"assets","inputs":[{"name":"","type":"address","internalType":"address"}],"outputs":[{"name":"emissionPerSecond","type":"uint128","internalType":"uint128"},{"name":"lastUpdateTimestamp","type":"uint128","internalType":"uint128"},{"name":"index","type":"uint256","internalType":"uint256"}],"stateMutability":"view"},{"type":"function","name":"balanceOf","inputs":[{"name":"account","type":"address","internalType":"address"}],"outputs":[{"name":"","type":"uint256","internalType":"uint256"}],"stateMutability":"view"},{"type":"function","name":"claimRewards","inputs":[{"name":"to","type":"address","internalType":"address"},{"name":"amount","type":"uint256","internalType":"uint256"}],"outputs":[],"stateMutability":"nonpayable"},{"type":"function","name":"configureAsset","inputs":[{"name":"emissionsPerSecond","type":"uint128","internalType":"uint128"},{"name":"underlyingAsset","type":"address","internalType":"contract IERC20"}],"outputs":[],"stateMutability":"nonpayable"},{"type":"function","name":"configureAssets","inputs":[{"name":"emissionPerSecond","type":"uint128[]","internalType":"uint128[]"},{"name":"totalStaked","type":"uint256[]","internalType":"uint256[]"},{"name":"underlyingAsset","type":"address[]","internalType":"address[]"}],"outputs":[],"stateMutability":"nonpayable"},{"type":"function","name":"cooldown","inputs":[],"outputs":[],"stateMutability":"nonpayable"},{"type":"function","name":"decimals","inputs":[],"outputs":[{"name":"","type":"uint8","internalType":"uint8"}],"stateMutability":"view"},{"type":"function","name":"decreaseAllowance","inputs":[{"name":"spender","type":"address","internalType":"address"},{"name":"subtractedValue","type":"uint256","internalType":"uint256"}],"outputs":[{"name":"","type":"bool","internalType":"bool"}],"stateMutability":"nonpayable"},{"type":"function","name":"getCurrentVotes","inputs":[{"name":"account","type":"address","internalType":"address"}],"outputs":[{"name":"","type":"uint256","internalType":"uint256"}],"stateMutability":"view"},{"type":"function","name":"getPriorVotes","inputs":[{"name":"account","type":"address","internalType":"address"},{"name":"blockNumber","type":"uint256","internalType":"uint256"}],"outputs":[{"name":"","type":"uint256","internalType":"uint256"}],"stateMutability":"view"},{"type":"function","name":"getTotalRewardsBalance","inputs":[{"name":"staker","type":"address","internalType":"address"}],"outputs":[{"name":"","type":"uint256","internalType":"uint256"}],"stateMutability":"view"},{"type":"function","name":"getUserAssetData","inputs":[{"name":"user","type":"address","internalType":"address"},{"name":"asset","type":"address","internalType":"address"}],"outputs":[{"name":"","type":"uint256","internalType":"uint256"}],"stateMutability":"view"},{"type":"function","name":"increaseAllowance","inputs":[{"name":"spender","type":"address","internalType":"address"},{"name":"addedValue","type":"uint256","internalType":"uint256"}],"outputs":[{"name":"","type":"bool","internalType":"bool"}],"stateMutability":"nonpayable"},{"type":"function","name":"name","inputs":[],"outputs":[{"name":"","type":"string","internalType":"string"}],"stateMutability":"view"},{"type":"function","name":"redeem","inputs":[{"name":"to","type":"address","internalType":"address"},{"name":"amount","type":"uint256","internalType":"uint256"}],"outputs":[],"stateMutability":"nonpayable"},{"type":"function","name":"setEmissionsManager","inputs":[{"name":"newEmissionsManager","type":"address","internalType":"address"}],"outputs":[],"stateMutability":"nonpayable"},{"type":"function","name":"stake","inputs":[{"name":"onBehalfOf","type":"address","internalType":"address"},{"name":"amount","type":"uint256","internalType":"uint256"}],"outputs":[],"stateMutability":"nonpayable"},{"type":"function","name":"stakerRewardsToClaim","inputs":[{"name":"","type":"address","internalType":"address"}],"outputs":[{"name":"","type":"uint256","internalType":"uint256"}],"stateMutability":"view"},{"type":"function","name":"stakersCooldowns","inputs":[{"name":"","type":"address","internalType":"address"}],"outputs":[{"name":"","type":"uint256","internalType":"uint256"}],"stateMutability":"view"},{"type":"function","name":"symbol","inputs":[],"outputs":[{"name":"","type":"string","internalType":"string"}],"stateMutability":"view"},{"type":"function","name":"totalSupply","inputs":[],"outputs":[{"name":"","type":"uint256","internalType":"uint256"}],"stateMutability":"view"},{"type":"function","name":"transfer","inputs":[{"name":"recipient","type":"address","internalType":"address"},{"name":"amount","type":"uint256","internalType":"uint256"}],"outputs":[{"name":"","type":"bool","internalType":"bool"}],"stateMutability":"nonpayable"},{"type":"function","name":"transferFrom","inputs":[{"name":"sender","type":"address","internalType":"address"},{"name":"recipient","type":"address","internalType":"address"},{"name":"amount","type":"uint256","internalType":"uint256"}],"outputs":[{"name":"","type":"bool","internalType":"bool"}],"stateMutability":"nonpayable"},{"type":"event","name":"Approval","inputs":[{"name":"owner","type":"address","indexed":true,"internalType":"address"},{"name":"spender","type":"address","indexed":true,"internalType":"address"},{"name":"value","type":"uint256","indexed":false,"internalType":"uint256"}],"anonymous":false},{"type":"event","name":"AssetConfigUpdated","inputs":[{"name":"asset","type":"address","indexed":true,"internalType":"address"},{"name":"emission","type":"uint256","indexed":false,"internalType":"uint256"}],"anonymous":false},{"type":"event","name":"AssetIndexUpdated","inputs":[{"name":"asset","type":"address","indexed":true,"internalType":"address"},{"name":"index","type":"uint256","indexed":false,"internalType":"uint256"}],"anonymous":false},{"type":"event","name":"Cooldown","inputs":[{"name":"user","type":"address","indexed":true,"internalType":"address"}],"anonymous":false},{"type":"event","name":"Redeem","inputs":[{"name":"from","type":"address","indexed":true,"internalType":"address"},{"name":"to","type":"address","indexed":true,"internalType":"address"},{"name":"amount","type":"uint256","indexed":false,"internalType":"uint256"}],"anonymous":false},{"type":"event","name":"RewardsAccrued","inputs":[{"name":"user","type":"address","indexed":false,"internalType":"address"},{"name":"amount","type":"uint256","indexed":false,"internalType":"uint256"}],"anonymous":false},{"type":"event","name":"RewardsClaimed","inputs":[{"name":"from","type":"address","indexed":true,"internalType":"address"},{"name":"to","type":"address","indexed":true,"internalType":"address"},{"name":"amount","type":"uint256","indexed":false,"internalType":"uint256"}],"anonymous":false},{"type":"event","name":"SnapshotDone","inputs":[{"name":"owner","type":"address","indexed":false,"internalType":"address"},{"name":"oldValue","type":"uint128","indexed":false,"internalType":"uint128"},{"name":"newValue","type":"uint128","indexed":false,"internalType":"uint128"}],"anonymous":false},{"type":"event","name":"Staked","inputs":[{"name":"from","type":"address","indexed":true,"internalType":"address"},{"name":"onBehalfOf","type":"address","indexed":true,"internalType":"address"},{"name":"amount","type":"uint256","indexed":false,"internalType":"uint256"}],"anonymous":false},{"type":"event","name":"Transfer","inputs":[{"name":"from","type":"address","indexed":true,"internalType":"address"},{"name":"to","type":"address","indexed":true,"internalType":"address"},{"name":"value","type":"uint256","indexed":false,"internalType":"uint256"}],"anonymous":false},{"type":"event","name":"UserIndexUpdated","inputs":[{"name":"user","type":"address","indexed":true,"internalType":"address"},{"name":"asset","type":"address","indexed":true,"internalType":"address"},{"name":"index","type":"uint256","indexed":false,"internalType":"uint256"}],"anonymous":false}],"bytecode":{"object":"0x60806040523480156100565762461bcd60e51b6000908152602060045260226024527f45746865722073656e7420746f206e6f6e2d70617961626c652066756e63746960449081526137b760f11b60645290608490fd5b5061339e806100666000396000f3fe60806040523480156100565762461bcd60e51b6000908152602060045260226024527f45746865722073656e7420746f206e6f6e2d70617961626c652066756e63746960449081526137b760f11b60645290608490fd5b50600436106101f25760003560e01c806306fdde0314610250578063091030c3146102cd578063095ea7b31461033057806318160ddd1461039b5780631c2f3e3d146103a35780631e9a6950146103c757806323b872dd146104205780632acbf82314610481578063312f6b8314610507578063313ce5671461050f5780633373ee4c1461052d578063359c4a9614610586578063395093511461058e57806339834025146105e557806370a082311461064557806372b49d6314610696578063782d6fe11461069e578063787a08a6146106f55780637e90d7ef146106fd5780638779588c1461074e5780638dbefee21461079f578063919cd40f146107f0578063946776cd146107f857806395d89b411461080057806399248ea7146108085780639a99b4f014610810578063a457c2d714610867578063a9059cbb146108be578063aaf5eb6814610915578063adc9772e1461091d578063b4b5ea5714610974578063cbcbb507146109c5578063dd62ed3e146109cd578063e856611814610a26578063f11b818814610a77578063f602d83d14610af2575b62461bcd60e51b6000908152602060045260356024527f436f6e747261637420646f6573206e6f7420686176652066616c6c6261636b206044908152746e6f7220726563656976652066756e6374696f6e7360581b60645290608490fd5b610258610ee4565b6040805160208082528351818301528351919283929083019185019080838360005b8381101561029257818101518382015260200161027a565b50505050905090810190601f1680156102bf5780820380516001836020036101000a031916815260200191505b509250505060405180910390f35b61031e6004803603602081101561030e5762461bcd60e51b600090815260206004526012602452600080516020613227833981519152604490815290606490fd5b50356001600160a01b0316610f7a565b60408051918252519081900360200190f35b610387600480360360408110156103715762461bcd60e51b600090815260206004526012602452600080516020613227833981519152604490815290606490fd5b506001600160a01b038135169060200135610f8c565b604080519115158252519081900360200190f35b61031e610faa565b6103ab610fb0565b604080516001600160a01b039092168252519081900360200190f35b61041e600480360360408110156104085762461bcd60e51b600090815260206004526012602452600080516020613227833981519152604490815290606490fd5b506001600160a01b038135169060200135610fbf565b005b610387600480360360608110156104615762461bcd60e51b600090815260206004526012602452600080516020613227833981519152604490815290606490fd5b506001600160a01b03813581169160208101359091169060400135611235565b6104d8600480360360408110156104c25762461bcd60e51b600090815260206004526012602452600080516020613227833981519152604490815290606490fd5b506001600160a01b0381351690602001356112bd565b60405180836001600160801b03168152602001826001600160801b031681526020019250505060405180910390f35b6103ab6112ee565b6105176112fd565b6040805160ff9092168252519081900360200190f35b61031e6004803603604081101561056e5762461bcd60e51b600090815260206004526012602452600080516020613227833981519152604490815290606490fd5b506001600160a01b0381358116916020013516611306565b61031e611336565b610387600480360360408110156105cf5762461bcd60e51b600090815260206004526012602452600080516020613227833981519152604490815290606490fd5b506001600160a01b03813516906020013561133c565b61041e600480360360408110156106265762461bcd60e51b600090815260206004526012602452600080516020613227833981519152604490815290606490fd5b5080356001600160801b031690602001356001600160a01b031661138a565b61031e600480360360208110156106865762461bcd60e51b600090815260206004526012602452600080516020613227833981519152604490815290606490fd5b50356001600160a01b03166114d0565b61031e6114eb565b61031e600480360360408110156106df5762461bcd60e51b600090815260206004526012602452600080516020613227833981519152604490815290606490fd5b506001600160a01b0381351690602001356114f1565b61041e61170b565b61031e6004803603602081101561073e5762461bcd60e51b600090815260206004526012602452600080516020613227833981519152604490815290606490fd5b50356001600160a01b031661179d565b61031e6004803603602081101561078f5762461bcd60e51b600090815260206004526012602452600080516020613227833981519152604490815290606490fd5b50356001600160a01b03166117af565b61031e600480360360208110156107e05762461bcd60e51b600090815260206004526012602452600080516020613227833981519152604490815290606490fd5b50356001600160a01b03166117c1565b61031e611870565b6103ab611876565b610258611885565b6103ab6118e6565b61041e600480360360408110156108515762461bcd60e51b600090815260206004526012602452600080516020613227833981519152604490815290606490fd5b506001600160a01b0381351690602001356118f5565b610387600480360360408110156108a85762461bcd60e51b600090815260206004526012602452600080516020613227833981519152604490815290606490fd5b506001600160a01b038135169060200135611a21565b610387600480360360408110156108ff5762461bcd60e51b600090815260206004526012602452600080516020613227833981519152604490815290606490fd5b506001600160a01b038135169060200135611a89565b610517611a9d565b61041e6004803603604081101561095e5762461bcd60e51b600090815260206004526012602452600080516020613227833981519152604490815290606490fd5b506001600160a01b038135169060200135611aa2565b61031e600480360360208110156109b55762461bcd60e51b600090815260206004526012602452600080516020613227833981519152604490815290606490fd5b50356001600160a01b0316611cb1565b6103ab611d1f565b61031e60048036036040811015610a0e5762461bcd60e51b600090815260206004526012602452600080516020613227833981519152604490815290606490fd5b506001600160a01b0381358116916020013516611d2e565b61041e60048036036020811015610a675762461bcd60e51b600090815260206004526012602452600080516020613227833981519152604490815290606490fd5b50356001600160a01b0316611d59565b610ac860048036036020811015610ab85762461bcd60e51b600090815260206004526012602452600080516020613227833981519152604490815290606490fd5b50356001600160a01b0316611dd2565b604080516001600160801b0394851681529290931660208301528183015290519081900360600190f35b61041e60048036036060811015610b335762461bcd60e51b600090815260206004526012602452600080516020613227833981519152604490815290606490fd5b810190602081018135600160201b811115610b895762461bcd60e51b60009081526020600452602a60245260008051602061315f833981519152604490815269185d18481bd9999cd95d60b21b60645290608490fd5b820183602082011115610bd85762461bcd60e51b60009081526020600452602b6024526000805160206131e783398151915260449081526a32b0b2103837b4b73a32b960a91b60645290608490fd5b803590602001918460208302840111600160201b83111715610c365762461bcd60e51b60009081526020600452602b60245260008051602061315f83398151915260449081526a30ba30903837b4b73a32b960a91b60645290608490fd5b9190808060200260200160405190810160405280939291908181526020018383602002808284376000920191909152509295949360208101935035915050600160201b811115610cc15762461bcd60e51b60009081526020600452602a60245260008051602061315f833981519152604490815269185d18481bd9999cd95d60b21b60645290608490fd5b820183602082011115610d105762461bcd60e51b60009081526020600452602b6024526000805160206131e783398151915260449081526a32b0b2103837b4b73a32b960a91b60645290608490fd5b803590602001918460208302840111600160201b83111715610d6e5762461bcd60e51b60009081526020600452602b60245260008051602061315f83398151915260449081526a30ba30903837b4b73a32b960a91b60645290608490fd5b9190808060200260200160405190810160405280939291908181526020018383602002808284376000920191909152509295949360208101935035915050600160201b811115610df95762461bcd60e51b60009081526020600452602a60245260008051602061315f833981519152604490815269185d18481bd9999cd95d60b21b60645290608490fd5b820183602082011115610e485762461bcd60e51b60009081526020600452602b6024526000805160206131e783398151915260449081526a32b0b2103837b4b73a32b960a91b60645290608490fd5b803590602001918460208302840111600160201b83111715610ea65762461bcd60e51b60009081526020600452602b60245260008051602061315f83398151915260449081526a30ba30903837b4b73a32b960a91b60645290608490fd5b919080806020026020016040519081016040528093929190818152602001838360200280828437600092019190915250929550611e00945050505050565b60038054604080516020601f6002600019610100600188161502019095169490940493840181900481028201810190925282815260609390929091830182828015610f705780601f10610f4557610100808354040283529160200191610f70565b820191906000526020600020905b815481529060010190602001808311610f5357829003601f168201915b5050505050905090565b60446020526000908152604090205481565b6000610fa0610f99611f08565b8484611f0c565b5060015b92915050565b60025490565b6008546001600160a01b031681565b6002600c541415611005576040805162461bcd60e51b815260206004820152601f602482015260008051602061311d833981519152604482015290519081900360640190fd5b6002600c5580611052576040805162461bcd60e51b81526020600482015260136024820152721253959053125117d6915493d7d05353d55395606a1b604482015290519081900360640190fd5b6001600160a01b0382166110a3576040805162461bcd60e51b815260206004820152601360248201527252454445454d5f5a45524f5f4144445245535360681b604482015290519081900360640190fd5b33600090815260446020526040908190205490546110c2908290611ff8565b421161110d576040805162461bcd60e51b815260206004820152601560248201527424a729aaa32324a1a4a2a72a2fa1a7a7a62227aba760591b604482015290519081900360640190fd5b60415461112f61112860405484611ff890919063ffffffff16565b4290612050565b111561117c576040805162461bcd60e51b8152602060048201526017602482015276155394d51052d157d5d2539113d5d7d192539254d21151604a1b604482015290519081900360640190fd5b6000611187336114d0565b90506000818411611198578361119a565b815b90506111a833836001612092565b506111b33382612130565b6111bd8282612050565b6111d257336000908152604460205260408120555b603e546111e9906001600160a01b0316868361221a565b6040805182815290516001600160a01b0387169133917fd12200efa34901b99367694174c3b0d32c99585fdf37c7c26892136ddd0836d99181900360200190a350506001600c55505050565b600061124284848461226c565b6112b28461124e611f08565b6112ad85604051806060016040528060288152602001613268602891396001600160a01b038a1660009081526001602052604081209061128c611f08565b6001600160a01b031681526020810191909152604001600020549190612332565b611f0c565b5060015b9392505050565b60066020908152600092835260408084209091529082529020546001600160801b0380821691600160801b90041682565b603e546001600160a01b031681565b60055460ff1690565b6001600160a01b038082166000908152600b60209081526040808320938616835260029093019052205492915050565b60415481565b6000610fa0611349611f08565b846112ad856001600061135a611f08565b6001600160a01b03908116825260208083019390935260409182016000908120918c168152925290205490611ff8565b600a546001600160a01b031633146113e1576040805162461bcd60e51b815260206004820152601560248201527427a7262cafa2a6a4a9a9a4a7a72fa6a0a720a3a2a960591b604482015290519081900360640190fd5b6000816001600160a01b03166370a08231306040518263ffffffff1660e01b815260040180826001600160a01b0316815260200191505060206040518083038186803b1580156114675762461bcd60e51b60009081526020600452602560245260008051602061320783398151915260449081526420636f646560d81b60645290608490fd5b505afa15801561147b573d6000803e3d6000fd5b505050506040513d60208110156114bc5762461bcd60e51b600090815260206004526012602452600080516020613227833981519152604490815290606490fd5b505190506114cb8382846123c9565b505050565b6001600160a01b031660009081526020819052604090205490565b60405481565b600043821061153c576040805162461bcd60e51b81526020600482015260126024820152711b9bdd081e595d0819195d195c9b5a5b995960721b604482015290519081900360640190fd5b6001600160a01b03831660009081526007602052604090205480611564576000915050610fa4565b6001600160a01b0384166000908152600660209081526040808320600019850184529091529020546001600160801b031683106115db576001600160a01b0384166000908152600660209081526040808320600019909401835292905220546001600160801b03600160801b909104169050610fa4565b6001600160a01b03841660009081526006602090815260408083208380529091529020546001600160801b0316831015611619576000915050610fa4565b600060001982015b818111156116cd5760028282030481036116396130b8565b506001600160a01b03871660009081526006602090815260408083208484528252918290208251808401909352546001600160801b03808216808552600160801b90920416918301919091528714156116a557602001516001600160801b03169450610fa49350505050565b80516001600160801b03168711156116bf578193506116c6565b6001820392505b5050611621565b506001600160a01b038516600090815260066020908152604080832093835292905220546001600160801b03600160801b9091041691505092915050565b611714336114d0565b611763576040805162461bcd60e51b815260206004820152601b60248201527a24a72b20a624a22fa120a620a721a2afa7a72fa1a7a7a62227aba760291b604482015290519081900360640190fd5b33600081815260446020526040808220429055517ff52f50426b32362d3e6bb8cb36b7074756b224622def6352a59eac7f66ebe6e89190a2565b60436020526000908152604090205481565b60076020526000908152604090205481565b60408051600180825281830190925260009160609190816020015b6117e46130cf565b8152602001906001900390816117dc5790505090506040518060600160405280306001600160a01b0316815260200161181c856114d0565b8152602001611829610faa565b8152508160008151811061183957fe5b60200260200101819052506112b6611851848361244d565b6001600160a01b03851660009081526043602052604090205490611ff8565b60095481565b6042546001600160a01b031681565b60048054604080516020601f6002600019610100600188161502019095169490940493840181900481028201810190925282815260609390929091830182828015610f705780601f10610f4557610100808354040283529160200191610f70565b603f546001600160a01b031681565b6002600c54141561193b576040805162461bcd60e51b815260206004820152601f602482015260008051602061311d833981519152604482015290519081900360640190fd5b6002600c5560006119563361194f816114d0565b6000612092565b905060006000198314611969578261196b565b815b90506119a8816040518060400160405280600e81526020016d1253959053125117d05353d5539560921b815250846123329092919063ffffffff16565b33600090815260436020526040902055604254603f546119d6916001600160a01b0391821691168684612541565b6040805182815290516001600160a01b0386169133917f9310ccfcb8de723f578a9e4282ea9f521f05ae40dc08f3068dfad528a65ee3c79181900360200190a350506001600c555050565b6000610fa0611a2e611f08565b846112ad856040518060600160405280602581526020016133446025913960016000611a58611f08565b6001600160a01b03908116825260208083019390935260409182016000908120918d16815292529020549190612332565b6000610fa0611a96611f08565b848461226c565b601281565b6002600c541415611ae8576040805162461bcd60e51b815260206004820152601f602482015260008051602061311d833981519152604482015290519081900360640190fd5b6002600c5580611b35576040805162461bcd60e51b81526020600482015260136024820152721253959053125117d6915493d7d05353d55395606a1b604482015290519081900360640190fd5b6001600160a01b038216611b85576040805162461bcd60e51b81526020600482015260126024820152715354414b455f5a45524f5f4144445245535360701b604482015290519081900360640190fd5b6000611b90836114d0565b90506000611ba7843084611ba2610faa565b61259b565b90508015611c1e57604080516001600160a01b03861681526020810183905281516000805160206131a1833981519152929181900390910190a16001600160a01b038416600090815260436020526040902054611c049082611ff8565b6001600160a01b0385166000908152604360205260409020555b611c2b6000848685612659565b6001600160a01b038516600090815260446020526040902055611c4e8484612737565b603e54611c66906001600160a01b0316333086612541565b6040805184815290516001600160a01b0386169133917f5dac0c1b1112564a045ba943c9d50270893e8e826c49be8e7073adc713ab7bd79181900360200190a350506001600c555050565b6001600160a01b03811660009081526007602052604081205480611cd6576000611d0f565b6001600160a01b038316600090815260066020908152604080832060001985018452909152902054600160801b90046001600160801b03165b6001600160801b03169392505050565b600a546001600160a01b031681565b6001600160a01b03918216600090815260016020908152604080832093909416825291909152205490565b600a546001600160a01b03163314611db0576040805162461bcd60e51b815260206004820152601560248201527427a7262cafa2a6a4a9a9a4a7a72fa6a0a720a3a2a960591b604482015290519081900360640190fd5b600a80546001600160a01b0319166001600160a01b0392909216919091179055565b600b60205260009081526040902080546001909101546001600160801b0380831692600160801b9004169083565b600a546001600160a01b03163314611e57576040805162461bcd60e51b815260206004820152601560248201527427a7262cafa2a6a4a9a9a4a7a72fa6a0a720a3a2a960591b604482015290519081900360640190fd5b81518351148015611e69575080518251145b611eaa576040805162461bcd60e51b815260206004820152600d60248201526c504152414d5f4c454e4754485360981b604482015290519081900360640190fd5b60005b8351811015611f0257611efa848281518110611ec557fe5b6020026020010151848381518110611ed957fe5b6020026020010151848481518110611eed57fe5b60200260200101516123c9565b600101611ead565b50505050565b3390565b6001600160a01b038316611f515760405162461bcd60e51b81526004018080602001828103825260248152602001806132f66024913960400191505060405180910390fd5b6001600160a01b038216611f965760405162461bcd60e51b815260040180806020018281038252602281526020018061317f6022913960400191505060405180910390fd5b6001600160a01b03808416600081815260016020908152604080832094871680845294825291829020859055815185815291517f8c5be1e5ebec7d5bd14f71427d1e84f3dd0314c0f7b2291e5b200ac8c7c3b9259281900390910190a3505050565b6000828201838110156112b6576040805162461bcd60e51b815260206004820152601b60248201527a536166654d6174683a206164646974696f6e206f766572666c6f7760281b604482015290519081900360640190fd5b60006112b683836040518060400160405280601e81526020017f536166654d6174683a207375627472616374696f6e206f766572666c6f770000815250612332565b6000806120a3853086611ba2610faa565b6001600160a01b038616600090815260436020526040812054919250906120ca9083611ff8565b905081156121275783156120f4576001600160a01b03861660009081526043602052604090208190555b604080516001600160a01b03881681526020810184905281516000805160206131a1833981519152929181900390910190a15b95945050505050565b6001600160a01b0382166121755760405162461bcd60e51b81526004018080602001828103825260218152602001806132b06021913960400191505060405180910390fd5b61218182600083612815565b6121be8160405180606001604052806022815260200161313d602291396001600160a01b0385166000908152602081905260409020549190612332565b6001600160a01b0383166000908152602081905260409020556002546121e49082612050565b6002556040805182815290516000916001600160a01b038516916000805160206132908339815191529181900360200190a35050565b604080516001600160a01b038416602482015260448082018490528251808303909101815260649091019091526020810180516001600160e01b031663a9059cbb60e01b1790526114cb908490612962565b6000612277846114d0565b905061228584826001612092565b50826001600160a01b0316846001600160a01b0316146123275760006122aa846114d0565b90506122b884826001612092565b506001600160a01b0385166000908152604460205260409020546122de81858785612659565b6001600160a01b038616600090815260446020526040902055828414801561230557508015155b15612324576001600160a01b0386166000908152604460205260408120555b50505b611f02848484612b45565b600081848411156123c15760405162461bcd60e51b81526004018080602001828103825283818151815260200191508051906020019080838360005b8381101561238657818101518382015260200161236e565b50505050905090810190601f1680156123b35780820380516001836020036101000a031916815260200191505b509250505060405180910390fd5b505050900390565b6001600160a01b0381166000908152600b602052604090206123ec828285612c8e565b5080546001600160801b0385166001600160801b03199091168117825560408051918252516001600160a01b038416917f87fa03892a0556cb6b8f97e6d533a150d4d55fcbf275fff5fa003fa636bcc7fa919081900360200190a250505050565b600080805b8351811015612539576000600b600086848151811061246d57fe5b602090810291909101810151516001600160a01b0316825281019190915260400160009081206001810154815488519294506124d5926001600160801b0380831692600160801b900416908a90889081106124c457fe5b602002602001015160400151612d47565b905061252a6125238785815181106124e957fe5b602002602001015160200151838560020160008c6001600160a01b03166001600160a01b0316815260200190815260200160002054612de6565b8590611ff8565b93505050806001019050612452565b509392505050565b604080516001600160a01b0380861660248301528416604482015260648082018490528251808303909101815260849091019091526020810180516001600160e01b03166323b872dd60e01b179052611f02908590612962565b6001600160a01b038084166000908152600b6020908152604080832093881683526002840190915281205490919082806125d6888588612c8e565b905080831461264b5786156125f3576125f0878285612de6565b91505b6001600160a01b03808a16600081815260028701602090815260409182902085905581518581529151938c16937fbb123b5c06d5408bbea3c4fef481578175cfb432e3b482c6186f02ed9086585b9281900390910190a35b50925050505b949350505050565b6001600160a01b03821660009081526044602052604081205480612681576000915050612651565b60006126a460415461269e6040544261205090919063ffffffff16565b90612050565b9050818111156126b75760009150612711565b60008782116126c657876126c8565b425b9050828110156126dd57829350505050612651565b61270d6126ea8887611ff8565b6127076126f78887612e04565b6127018b86612e04565b90611ff8565b90612e5d565b9250505b506001600160a01b03841660009081526044602052604090208190559050949350505050565b6001600160a01b038216612792576040805162461bcd60e51b815260206004820152601f60248201527f45524332303a206d696e7420746f20746865207a65726f206164647265737300604482015290519081900360640190fd5b61279e60008383612815565b6002546127ab9082611ff8565b6002556001600160a01b0382166000908152602081905260409020546127d19082611ff8565b6001600160a01b0383166000818152602081815260408083209490945583518581529351929391926000805160206132908339815191529281900390910190a35050565b816001600160a01b0316836001600160a01b03161415612834576114cb565b6001600160a01b0383161561286657600061284e846114d0565b9050612864848261285f8186612050565b612e9c565b505b6001600160a01b03821615612893576000612880836114d0565b9050612891838261285f8186611ff8565b505b6008546001600160a01b03168015611f0257806001600160a01b0316634a3931498585856040518463ffffffff1660e01b815260040180846001600160a01b03168152602001836001600160a01b031681526020018281526020019350505050600060405180830381600087803b1580156129445762461bcd60e51b60009081526020600452602560245260008051602061320783398151915260449081526420636f646560d81b60645290608490fd5b505af1158015612958573d6000803e3d6000fd5b5050505050505050565b612974826001600160a01b031661301a565b6129c5576040805162461bcd60e51b815260206004820152601f60248201527f5361666545524332303a2063616c6c20746f206e6f6e2d636f6e747261637400604482015290519081900360640190fd5b60006060836001600160a01b0316836040518082805190602001908083835b60208310612a035780518252601f1990920191602091820191016129e4565b6001836020036101000a0380198251168184511680821785525050505050509050019150506000604051808303816000865af19150503d8060008114612a65576040519150601f19603f3d011682016040523d82523d6000602084013e612a6a565b606091505b509150915081612ac1576040805162461bcd60e51b815260206004820181905260248201527f5361666545524332303a206c6f772d6c6576656c2063616c6c206661696c6564604482015290519081900360640190fd5b805115611f0257808060200190516020811015612b085762461bcd60e51b600090815260206004526012602452600080516020613227833981519152604490815290606490fd5b5051611f025760405162461bcd60e51b815260040180806020018281038252602a81526020018061331a602a913960400191505060405180910390fd5b6001600160a01b038316612b8a5760405162461bcd60e51b81526004018080602001828103825260258152602001806132d16025913960400191505060405180910390fd5b6001600160a01b038216612bcf5760405162461bcd60e51b81526004018080602001828103825260238152602001806130fa6023913960400191505060405180910390fd5b612bda838383612815565b612c17816040518060600160405280602681526020016131c1602691396001600160a01b0386166000908152602081905260409020549190612332565b6001600160a01b038085166000908152602081905260408082209390935590841681522054612c469082611ff8565b6001600160a01b0380841660008181526020818152604091829020949094558051858152905191939287169260008051602061329083398151915292918290030190a3505050565b6001820154825460009190600160801b90046001600160801b031642811415612cb9575090506112b6565b8454600090612cd49084906001600160801b03168488612d47565b9050828114612d2457600186018190556040805182815290516001600160a01b038916917f5777ca300dfe5bead41006fbce4389794dbc0ed8d6cccebfaf94630aa04184bc919081900360200190a25b85546001600160801b03428116600160801b029116178655925050509392505050565b6000831580612d54575081155b80612d67575042836001600160801b0316145b80612d7d5750600954836001600160801b031610155b15612d89575083612651565b60006009544211612d9a5742612d9e565b6009545b90506000612db5826001600160801b038716612050565b9050612ddb8761270186612707670de0b6b3a7640000612dd58c88612e04565b90612e04565b979650505050505050565b6000612651670de0b6b3a7640000612707612e018686612050565b87905b600082612e1357506000610fa4565b82820282848281612e2057fe5b04146112b65760405162461bcd60e51b81526004018080602001828103825260218152602001806132476021913960400191505060405180910390fd5b60006112b683836040518060400160405280601a815260200179536166654d6174683a206469766973696f6e206279207a65726f60301b815250613053565b6001600160a01b03831660009081526007602090815260408083205460069092529091204391908115801590612f0157506001600160801b038316816000612ee5856001612050565b81526020810191909152604001600020546001600160801b0316145b15612f455783816000612f15856001612050565b8152602081019190915260400160002080546001600160801b03928316600160801b029216919091179055612fc0565b6040805180820182526001600160801b0380861682528681166020808401918252600087815290869052939093209151825493518216600160801b029082166001600160801b03199094169390931716919091179055612fa6826001611ff8565b6001600160a01b0387166000908152600760205260409020555b604080516001600160a01b03881681526001600160801b03808816602083015286168183015290517f2cd3c83ddac2953ee75f53265d9ea4463eaf05030e5459a1b7e63819b7ce88f79181900360600190a1505050505050565b6000813f7fc5d2460186f7233c927e7db2dcc703c0e500b653ca82273b7bfad8045d85a470818114801590612651575050151592915050565b600081836130a25760405162461bcd60e51b815260206004820181815283516024840152835190928392604490910191908501908083836000831561238657818101518382015260200161236e565b5060008385816130ae57fe5b0495945050505050565b604080518082019091526000808252602082015290565b604051806060016040528060006001600160a01b031681526020016000815260200160008152509056fe45524332303a207472616e7366657220746f20746865207a65726f20616464726573735265656e7472616e637947756172643a207265656e7472616e742063616c6c0045524332303a206275726e20616d6f756e7420657863656564732062616c616e63654142492063616c6c64617461206465636f64696e673a20696e76616c6964206445524332303a20617070726f766520746f20746865207a65726f20616464726573732468f9268c60ad90e2d49edb0032c8a001e733ae888b3ab8e982edf535be1a7645524332303a207472616e7366657220616d6f756e7420657863656564732062616c616e63654142492063616c6c64617461206465636f64696e673a20696e76616c6964206854617267657420636f6e747261637420646f6573206e6f7420636f6e7461696e43616c6c6461746120746f6f2073686f72740000000000000000000000000000536166654d6174683a206d756c7469706c69636174696f6e206f766572666c6f7745524332303a207472616e7366657220616d6f756e74206578636565647320616c6c6f77616e6365ddf252ad1be2c89b69c2b068fc378daa952ba7f163c4a11628f55a4df523b3ef45524332303a206275726e2066726f6d20746865207a65726f206164647265737345524332303a207472616e736665722066726f6d20746865207a65726f206164647265737345524332303a20617070726f76652066726f6d20746865207a65726f20616464726573735361666545524332303a204552433230206f7065726174696f6e20646964206e6f74207375636365656445524332303a2064656372656173656420616c6c6f77616e63652062656c6f77207a65726fa26469706673582212209757ee15c060e5cce8f5ba55f35f26f42364d3dfe1c288c552c8a80000f242bc64736f6c634300060c0033","linkReferences":{}},"methodIdentifiers":{"COOLDOWN_SECONDS()":"72b49d63","DISTRIBUTION_END()":"919cd40f","EMISSION_MANAGER()":"cbcbb507","PRECISION()":"aaf5eb68","REWARDS_VAULT()":"946776cd","REWARD_TOKEN()":"99248ea7","STAKED_TOKEN()":"312f6b83","UNSTAKE_WINDOW()":"359c4a96","_countsSnapshots(address)":"8779588c","_governance()":"1c2f3e3d","_snapshots(address,uint256)":"2acbf823","allowance(address,address)":"dd62ed3e","approve(address,uint256)":"095ea7b3","assets(address)":"f11b8188","balanceOf(address)":"70a08231","claimRewards(address,uint256)":"9a99b4f0","configureAsset(uint128,address)":"39834025","configureAssets(uint128[],uint256[],address[])":"f602d83d","cooldown()":"787a08a6","decimals()":"313ce567","decreaseAllowance(address,uint256)":"a457c2d7","getCurrentVotes(address)":"b4b5ea57","getPriorVotes(address,uint256)":"782d6fe1","getTotalRewardsBalance(address)":"8dbefee2","getUserAssetData(address,address)":"3373ee4c","increaseAllowance(address,uint256)":"39509351","name()":"06fdde03","redeem(address,uint256)":"1e9a6950","setEmissionsManager(address)":"e8566118","stake(address,uint256)":"adc9772e","stakerRewardsToClaim(address)":"7e90d7ef","stakersCooldowns(address)":"091030c3","symbol()":"95d89b41","totalSupply()":"18160ddd","transfer(address,uint256)":"a9059cbb","transferFrom(address,address,uint256)":"23b872dd"},"id":23}