{"abi":[{"type":"function","name":"DISTRIBUTION_END","inputs":[],"outputs":[{"name":"","type":"uint256","internalType":"uint256"}],"stateMutability":"view"},{"type":"function","name":"EMISSION_MANAGER","inputs":[],"outputs":[{"name":"","type":"address","internalType":"address"}],"stateMutability":"view"},{"type":"function","name":"PRECISION","inputs":[],"outputs":[{"name":"","type":"uint8","internalType":"uint8"}],"stateMutability":"view"},{"type":"function","name":"assets","inputs":[{"name":"","type":"address","internalType":"address"}],"outputs":[{"name":"emissionPerSecond","type":"uint128","internalType":"uint128"},{"name":"lastUpdateTimestamp","type":"uint128","internalType":"uint128"},{"name":"index","type":"uint256","internalType":"uint256"}],"stateMutability":"view"},{"type":"function","name":"configureAsset","inputs":[{"name":"emissionsPerSecond","type":"uint128","internalType":"uint128"},{"name":"underlyingAsset","type":"address","internalType":"contract IERC20"}],"outputs":[],"stateMutability":"nonpayable"},{"type":"function","name":"configureAssets","inputs":[{"name":"emissionPerSecond","type":"uint128[]","internalType":"uint128[]"},{"name":"totalStaked","type":"uint256[]","internalType":"uint256[]"},{"name":"underlyingAsset","type":"address[]","internalType":"address[]"}],"outputs":[],"stateMutability":"nonpayable"},{"type":"function","name":"getUserAssetData","inputs":[{"name":"user","type":"address","internalType":"address"},{"name":"asset","type":"address","internalType":"address"}],"outputs":[{"name":"","type":"uint256","internalType":"uint256"}],"stateMutability":"view"},{"type":"function","name":"setEmissionsManager","inputs":[{"name":"newEmissionsManager","type":"address","internalType":"address"}],"outputs":[],"stateMutability":"nonpayable"},{"type":"event","name":"AssetConfigUpdated","inputs":[{"name":"asset","type":"address","indexed":true,"internalType":"address"},{"name":"emission","type":"uint256","indexed":false,"internalType":"uint256"}],"anonymous":false},{"type":"event","name":"AssetIndexUpdated","inputs":[{"name":"asset","type":"address","indexed":true,"internalType":"address"},{"name":"index","type":"uint256","indexed":false,"internalType":"uint256"}],"anonymous":false},{"type":"event","name":"UserIndexUpdated","inputs":[{"name":"user","type":"address","indexed":true,"internalType":"address"},{"name":"asset","type":"address","indexed":true,"internalType":"address"},{"name":"index","type":"uint256","indexed":false,"internalType":"uint256"}],"anonymous":false}],"bytecode":{"object":"0x60806040523480156100565762461bcd60e51b6000908152602060045260226024527f45746865722073656e7420746f206e6f6e2d70617961626c652066756e63746960449081526137b760f11b60645290608490fd5b50610f11806100666000396000f3fe60806040523480156100565762461bcd60e51b6000908152602060045260226024527f45746865722073656e7420746f206e6f6e2d70617961626c652066756e63746960449081526137b760f11b60645290608490fd5b50600436106100be5760003560e01c80633373ee4c1461011c5780633983402514610187578063919cd40f146101e9578063aaf5eb68146101f1578063cbcbb5071461020f578063e856611814610233578063f11b818814610284578063f602d83d146102ff575b62461bcd60e51b6000908152602060045260356024527f436f6e747261637420646f6573206e6f7420686176652066616c6c6261636b206044908152746e6f7220726563656976652066756e6374696f6e7360581b60645290608490fd5b6101756004803603604081101561015d5762461bcd60e51b600090815260206004526012602452600080516020610e9b833981519152604490815290606490fd5b506001600160a01b03813581169160200135166106f1565b60408051918252519081900360200190f35b6101e7600480360360408110156101c85762461bcd60e51b600090815260206004526012602452600080516020610e9b833981519152604490815290606490fd5b5080356001600160801b031690602001356001600160a01b0316610721565b005b610175610879565b6101f961087f565b6040805160ff9092168252519081900360200190f35b610217610884565b604080516001600160a01b039092168252519081900360200190f35b6101e7600480360360208110156102745762461bcd60e51b600090815260206004526012602452600080516020610e9b833981519152604490815290606490fd5b50356001600160a01b0316610893565b6102d5600480360360208110156102c55762461bcd60e51b600090815260206004526012602452600080516020610e9b833981519152604490815290606490fd5b50356001600160a01b031661090c565b604080516001600160801b0394851681529290931660208301528183015290519081900360600190f35b6101e7600480360360608110156103405762461bcd60e51b600090815260206004526012602452600080516020610e9b833981519152604490815290606490fd5b810190602081018135600160201b8111156103965762461bcd60e51b60009081526020600452602a602452600080516020610e5b833981519152604490815269185d18481bd9999cd95d60b21b60645290608490fd5b8201836020820111156103e55762461bcd60e51b60009081526020600452602b602452600080516020610e7b83398151915260449081526a32b0b2103837b4b73a32b960a91b60645290608490fd5b803590602001918460208302840111600160201b831117156104435762461bcd60e51b60009081526020600452602b602452600080516020610e5b83398151915260449081526a30ba30903837b4b73a32b960a91b60645290608490fd5b9190808060200260200160405190810160405280939291908181526020018383602002808284376000920191909152509295949360208101935035915050600160201b8111156104ce5762461bcd60e51b60009081526020600452602a602452600080516020610e5b833981519152604490815269185d18481bd9999cd95d60b21b60645290608490fd5b82018360208201111561051d5762461bcd60e51b60009081526020600452602b602452600080516020610e7b83398151915260449081526a32b0b2103837b4b73a32b960a91b60645290608490fd5b803590602001918460208302840111600160201b8311171561057b5762461bcd60e51b60009081526020600452602b602452600080516020610e5b83398151915260449081526a30ba30903837b4b73a32b960a91b60645290608490fd5b9190808060200260200160405190810160405280939291908181526020018383602002808284376000920191909152509295949360208101935035915050600160201b8111156106065762461bcd60e51b60009081526020600452602a602452600080516020610e5b833981519152604490815269185d18481bd9999cd95d60b21b60645290608490fd5b8201836020820111156106555762461bcd60e51b60009081526020600452602b602452600080516020610e7b83398151915260449081526a32b0b2103837b4b73a32b960a91b60645290608490fd5b803590602001918460208302840111600160201b831117156106b35762461bcd60e51b60009081526020600452602b602452600080516020610e5b83398151915260449081526a30ba30903837b4b73a32b960a91b60645290608490fd5b91908080602002602001604051908101604052809392919081815260200183836020028082843760009201919091525092955061093a945050505050565b6001600160a01b038082166000908152600260208181526040808420948716845293909101905220545b92915050565b6001546001600160a01b03163314610778576040805162461bcd60e51b815260206004820152601560248201527427a7262cafa2a6a4a9a9a4a7a72fa6a0a720a3a2a960591b604482015290519081900360640190fd5b6000816001600160a01b03166370a08231306040518263ffffffff1660e01b815260040180826001600160a01b0316815260200191505060206040518083038186803b1580156108105762461bcd60e51b6000908152602060045260256024527f54617267657420636f6e747261637420646f6573206e6f7420636f6e7461696e60449081526420636f646560d81b60645290608490fd5b505afa158015610824573d6000803e3d6000fd5b505050506040513d60208110156108655762461bcd60e51b600090815260206004526012602452600080516020610e9b833981519152604490815290606490fd5b50519050610874838284610a42565b505050565b60005481565b601281565b6001546001600160a01b031681565b6001546001600160a01b031633146108ea576040805162461bcd60e51b815260206004820152601560248201527427a7262cafa2a6a4a9a9a4a7a72fa6a0a720a3a2a960591b604482015290519081900360640190fd5b600180546001600160a01b0319166001600160a01b0392909216919091179055565b600260205260009081526040902080546001909101546001600160801b0380831692600160801b9004169083565b6001546001600160a01b03163314610991576040805162461bcd60e51b815260206004820152601560248201527427a7262cafa2a6a4a9a9a4a7a72fa6a0a720a3a2a960591b604482015290519081900360640190fd5b815183511480156109a3575080518251145b6109e4576040805162461bcd60e51b815260206004820152600d60248201526c504152414d5f4c454e4754485360981b604482015290519081900360640190fd5b60005b8351811015610a3c57610a348482815181106109ff57fe5b6020026020010151848381518110610a1357fe5b6020026020010151848481518110610a2757fe5b6020026020010151610a42565b6001016109e7565b50505050565b6001600160a01b0381166000908152600260205260409020610a65828285610ac6565b5080546001600160801b0385166001600160801b03199091168117825560408051918252516001600160a01b038416917f87fa03892a0556cb6b8f97e6d533a150d4d55fcbf275fff5fa003fa636bcc7fa919081900360200190a250505050565b6001820154825460009190600160801b90046001600160801b031642811415610af157509050610b79565b8454600090610b0c9084906001600160801b03168488610b80565b9050828114610b5c57600186018190556040805182815290516001600160a01b038916917f5777ca300dfe5bead41006fbce4389794dbc0ed8d6cccebfaf94630aa04184bc919081900360200190a25b85546001600160801b03428116600160801b029116178655925050505b9392505050565b6000831580610b8d575081155b80610ba0575042836001600160801b0316145b80610bb65750600054836001600160801b031610155b15610bc2575083610c24565b600080544211610bd25742610bd6565b6000545b90506000610bed826001600160801b038716610c2c565b9050610c1f87610c1986610c13670de0b6b3a7640000610c0d8c88610c6e565b90610c6e565b90610cc7565b90610d06565b925050505b949350505050565b6000610b7983836040518060400160405280601e81526020017f536166654d6174683a207375627472616374696f6e206f766572666c6f770000815250610d5e565b600082610c7d5750600061071b565b82820282848281610c8a57fe5b0414610b795760405162461bcd60e51b8152600401808060200182810382526021815260200180610ebb6021913960400191505060405180910390fd5b6000610b7983836040518060400160405280601a815260200179536166654d6174683a206469766973696f6e206279207a65726f60301b815250610df5565b600082820183811015610b79576040805162461bcd60e51b815260206004820152601b60248201527a536166654d6174683a206164646974696f6e206f766572666c6f7760281b604482015290519081900360640190fd5b60008184841115610ded5760405162461bcd60e51b81526004018080602001828103825283818151815260200191508051906020019080838360005b83811015610db2578181015183820152602001610d9a565b50505050905090810190601f168015610ddf5780820380516001836020036101000a031916815260200191505b509250505060405180910390fd5b505050900390565b60008183610e445760405162461bcd60e51b8152602060048201818152835160248401528351909283926044909101919085019080838360008315610db2578181015183820152602001610d9a565b506000838581610e5057fe5b049594505050505056fe4142492063616c6c64617461206465636f64696e673a20696e76616c696420644142492063616c6c64617461206465636f64696e673a20696e76616c6964206843616c6c6461746120746f6f2073686f72740000000000000000000000000000536166654d6174683a206d756c7469706c69636174696f6e206f766572666c6f77a264697066735822122096d82677e07861c6f72bdde6a289c5ab1950d97c28685e3cb625f04b0bd5045464736f6c634300060c0033","linkReferences":{}},"methodIdentifiers":{"DISTRIBUTION_END()":"919cd40f","EMISSION_MANAGER()":"cbcbb507","PRECISION()":"aaf5eb68","assets(address)":"f11b8188","configureAsset(uint128,address)":"39834025","configureAssets(uint128[],uint256[],address[])":"f602d83d","getUserAssetData(address,address)":"3373ee4c","setEmissionsManager(address)":"e8566118"},"id":21}