{"abi":[{"type":"constructor","inputs":[],"stateMutability":"nonpayable"},{"type":"function","name":"COOLDOWN_SECONDS","inputs":[],"outputs":[{"name":"","type":"uint256","internalType":"uint256"}],"stateMutability":"view"},{"type":"function","name":"DISTRIBUTION_END","inputs":[],"outputs":[{"name":"","type":"uint256","internalType":"uint256"}],"stateMutability":"view"},{"type":"function","name":"EMISSION_MANAGER","inputs":[],"outputs":[{"name":"","type":"address","internalType":"address"}],"stateMutability":"view"},{"type":"function","name":"PRECISION","inputs":[],"outputs":[{"name":"","type":"uint8","internalType":"uint8"}],"stateMutability":"view"},{"type":"function","name":"REWARDS_VAULT","inputs":[],"outputs":[{"name":"","type":"address","internalType":"address"}],"stateMutability":"view"},{"type":"function","name":"REWARD_TOKEN","inputs":[],"outputs":[{"name":"","type":"address","internalType":"contract IERC20"}],"stateMutability":"view"},{"type":"function","name":"STAKED_TOKEN","inputs":[],"outputs":[{"name":"","type":"address","internalType":"contract IERC20"}],"stateMutability":"view"},{"type":"function","name":"UNSTAKE_WINDOW","inputs":[],"outputs":[{"name":"","type":"uint256","internalType":"uint256"}],"stateMutability":"view"},{"type":"function","name":"_countsSnapshots","inputs":[{"name":"","type":"address","internalType":"address"}],"outputs":[{"name":"","type":"uint256","internalType":"uint256"}],"stateMutability":"view"},{"type":"function","name":"_governance","inputs":[],"outputs":[{"name":"","type":"address","internalType":"contract ITransferHook"}],"stateMutability":"view"},{"type":"function","name":"_snapshots","inputs":[{"name":"","type":"address","internalType":"address"},{"name":"","type":"uint256","internalType":"uint256"}],"outputs":[{"name":"blockTimestamp","type":"uint128","internalType":"uint128"},{"name":"value","type":"uint128","internalType":"uint128"}],"stateMutability":"view"},{"type":"function","name":"allowance","inputs":[{"name":"owner","type":"address","internalType":"address"},{"name":"spender","type":"address","internalType":"address"}],"outputs":[{"name":"","type":"uint256","internalType":"uint256"}],"stateMutability":"view"},{"type":"function","name":"approve","inputs":[{"name":"spender","type":"address","internalType":"address"},{"name":"amount","type":"uint256","internalType":"uint256"}],"outputs":[{"name":"","type":"bool","internalType":"bool"}],"stateMutability":"nonpayable"},{"type":"function","name":"assets","inputs":[{"name":"","type":"address","internalType":"address"}],"outputs":[{"name":"emissionPerSecond","type":"uint128","internalType":"uint128"},{"name":"lastUpdateTimestamp","type":"uint128","internalType":"uint128"},{"name":"index","type":"uint256","internalType":"uint256"}],"stateMutability":"view"},{"type":"function","name":"balanceOf","inputs":[{"name":"account","type":"address","internalType":"address"}],"outputs":[{"name":"","type":"uint256","internalType":"uint256"}],"stateMutability":"view"},{"type":"function","name":"claimRewards","inputs":[{"name":"to","type":"address","internalType":"address"},{"name":"amount","type":"uint256","internalType":"uint256"}],"outputs":[],"stateMutability":"nonpayable"},{"type":"function","name":"configureAsset","inputs":[{"name":"emissionsPerSecond","type":"uint128","internalType":"uint128"},{"name":"underlyingAsset","type":"address","internalType":"contract IERC20"}],"outputs":[],"stateMutability":"nonpayable"},{"type":"function","name":"configureAssets","inputs":[{"name":"emissionPerSecond","type":"uint128[]","internalType":"uint128[]"},{"name":"totalStaked","type":"uint256[]","internalType":"uint256[]"},{"name":"underlyingAsset","type":"address[]","internalType":"address[]"}],"outputs":[],"stateMutability":"nonpayable"},{"type":"function","name":"cooldown","inputs":[],"outputs":[],"stateMutability":"nonpayable"},{"type":"function","name":"decimals","inputs":[],"outputs":[{"name":"","type":"uint8","internalType":"uint8"}],"stateMutability":"view"},{"type":"function","name":"decreaseAllowance","inputs":[{"name":"spender","type":"address","internalType":"address"},{"name":"subtractedValue","type":"uint256","internalType":"uint256"}],"outputs":[{"name":"","type":"bool","internalType":"bool"}],"stateMutability":"nonpayable"},{"type":"function","name":"getCurrentVotes","inputs":[{"name":"account","type":"address","internalType":"address"}],"outputs":[{"name":"","type":"uint256","internalType":"uint256"}],"stateMutability":"view"},{"type":"function","name":"getPriorVotes","inputs":[{"name":"account","type":"address","internalType":"address"},{"name":"blockTimestamp","type":"uint256","internalType":"uint256"}],"outputs":[{"name":"","type":"uint256","internalType":"uint256"}],"stateMutability":"view"},{"type":"function","name":"getTotalRewardsBalance","inputs":[{"name":"staker","type":"address","internalType":"address"}],"outputs":[{"name":"","type":"uint256","internalType":"uint256"}],"stateMutability":"view"},{"type":"function","name":"getUserAssetData","inputs":[{"name":"user","type":"address","internalType":"address"},{"name":"asset","type":"address","internalType":"address"}],"outputs":[{"name":"","type":"uint256","internalType":"uint256"}],"stateMutability":"view"},{"type":"function","name":"increaseAllowance","inputs":[{"name":"spender","type":"address","internalType":"address"},{"name":"addedValue","type":"uint256","internalType":"uint256"}],"outputs":[{"name":"","type":"bool","internalType":"bool"}],"stateMutability":"nonpayable"},{"type":"function","name":"initialize","inputs":[{"name":"stakedToken","type":"address","internalType":"contract IERC20"},{"name":"rewardToken","type":"address","internalType":"contract IERC20"},{"name":"cooldownSeconds","type":"uint256","internalType":"uint256"},{"name":"unstakeWindow","type":"uint256","internalType":"uint256"},{"name":"rewardsVault","type":"address","internalType":"address"},{"name":"emissionManager","type":"address","internalType":"address"},{"name":"distributionDuration","type":"uint128","internalType":"uint128"},{"name":"governance","type":"address","internalType":"address"}],"outputs":[],"stateMutability":"nonpayable"},{"type":"function","name":"name","inputs":[],"outputs":[{"name":"","type":"string","internalType":"string"}],"stateMutability":"view"},{"type":"function","name":"redeem","inputs":[{"name":"to","type":"address","internalType":"address"},{"name":"amount","type":"uint256","internalType":"uint256"}],"outputs":[],"stateMutability":"nonpayable"},{"type":"function","name":"setCoolDownSeconds","inputs":[{"name":"cooldownSeconds","type":"uint256","internalType":"uint256"}],"outputs":[],"stateMutability":"nonpayable"},{"type":"function","name":"setEmissionsManager","inputs":[{"name":"newEmissionsManager","type":"address","internalType":"address"}],"outputs":[],"stateMutability":"nonpayable"},{"type":"function","name":"setUnstakeWindow","inputs":[{"name":"unstakeWindow","type":"uint256","internalType":"uint256"}],"outputs":[],"stateMutability":"nonpayable"},{"type":"function","name":"stake","inputs":[{"name":"onBehalfOf","type":"address","internalType":"address"},{"name":"amount","type":"uint256","internalType":"uint256"}],"outputs":[],"stateMutability":"nonpayable"},{"type":"function","name":"stakerRewardsToClaim","inputs":[{"name":"","type":"address","internalType":"address"}],"outputs":[{"name":"","type":"uint256","internalType":"uint256"}],"stateMutability":"view"},{"type":"function","name":"stakersCooldowns","inputs":[{"name":"","type":"address","internalType":"address"}],"outputs":[{"name":"","type":"uint256","internalType":"uint256"}],"stateMutability":"view"},{"type":"function","name":"symbol","inputs":[],"outputs":[{"name":"","type":"string","internalType":"string"}],"stateMutability":"view"},{"type":"function","name":"totalSupply","inputs":[],"outputs":[{"name":"","type":"uint256","internalType":"uint256"}],"stateMutability":"view"},{"type":"function","name":"transfer","inputs":[{"name":"recipient","type":"address","internalType":"address"},{"name":"amount","type":"uint256","internalType":"uint256"}],"outputs":[{"name":"","type":"bool","internalType":"bool"}],"stateMutability":"nonpayable"},{"type":"function","name":"transferFrom","inputs":[{"name":"sender","type":"address","internalType":"address"},{"name":"recipient","type":"address","internalType":"address"},{"name":"amount","type":"uint256","internalType":"uint256"}],"outputs":[{"name":"","type":"bool","internalType":"bool"}],"stateMutability":"nonpayable"},{"type":"event","name":"Approval","inputs":[{"name":"owner","type":"address","indexed":true,"internalType":"address"},{"name":"spender","type":"address","indexed":true,"internalType":"address"},{"name":"value","type":"uint256","indexed":false,"internalType":"uint256"}],"anonymous":false},{"type":"event","name":"AssetConfigUpdated","inputs":[{"name":"asset","type":"address","indexed":true,"internalType":"address"},{"name":"emission","type":"uint256","indexed":false,"internalType":"uint256"}],"anonymous":false},{"type":"event","name":"AssetIndexUpdated","inputs":[{"name":"asset","type":"address","indexed":true,"internalType":"address"},{"name":"index","type":"uint256","indexed":false,"internalType":"uint256"}],"anonymous":false},{"type":"event","name":"Cooldown","inputs":[{"name":"user","type":"address","indexed":true,"internalType":"address"}],"anonymous":false},{"type":"event","name":"CooldownSecondsUpdated","inputs":[{"name":"newCooldownSeconds","type":"uint256","indexed":false,"internalType":"uint256"}],"anonymous":false},{"type":"event","name":"Redeem","inputs":[{"name":"from","type":"address","indexed":true,"internalType":"address"},{"name":"to","type":"address","indexed":true,"internalType":"address"},{"name":"amount","type":"uint256","indexed":false,"internalType":"uint256"}],"anonymous":false},{"type":"event","name":"RewardsAccrued","inputs":[{"name":"user","type":"address","indexed":false,"internalType":"address"},{"name":"amount","type":"uint256","indexed":false,"internalType":"uint256"}],"anonymous":false},{"type":"event","name":"RewardsClaimed","inputs":[{"name":"from","type":"address","indexed":true,"internalType":"address"},{"name":"to","type":"address","indexed":true,"internalType":"address"},{"name":"amount","type":"uint256","indexed":false,"internalType":"uint256"}],"anonymous":false},{"type":"event","name":"SnapshotDone","inputs":[{"name":"owner","type":"address","indexed":false,"internalType":"address"},{"name":"oldValue","type":"uint128","indexed":false,"internalType":"uint128"},{"name":"newValue","type":"uint128","indexed":false,"internalType":"uint128"}],"anonymous":false},{"type":"event","name":"Staked","inputs":[{"name":"from","type":"address","indexed":true,"internalType":"address"},{"name":"onBehalfOf","type":"address","indexed":true,"internalType":"address"},{"name":"amount","type":"uint256","indexed":false,"internalType":"uint256"}],"anonymous":false},{"type":"event","name":"Transfer","inputs":[{"name":"from","type":"address","indexed":true,"internalType":"address"},{"name":"to","type":"address","indexed":true,"internalType":"address"},{"name":"value","type":"uint256","indexed":false,"internalType":"uint256"}],"anonymous":false},{"type":"event","name":"UnstakeWindowUpdated","inputs":[{"name":"newUnstakeWindow","type":"uint256","indexed":false,"internalType":"uint256"}],"anonymous":false},{"type":"event","name":"UserIndexUpdated","inputs":[{"name":"user","type":"address","indexed":true,"internalType":"address"},{"name":"asset","type":"address","indexed":true,"internalType":"address"},{"name":"index","type":"uint256","indexed":false,"internalType":"uint256"}],"anonymous":false}],"bytecode":{"object":"0x6080604052348015620000575762461bcd60e51b6000908152602060045260226024527f45746865722073656e7420746f206e6f6e2d70617961626c652066756e63746960449081526137b760f11b60645290608490fd5b50600854600160a81b900460ff16806200007b5750600854600160a01b900460ff16155b620000b85760405162461bcd60e51b815260040180806020018281038252602e81526020018062003bbc602e913960400191505060405180910390fd5b600854600160a81b900460ff16158015620000f0576008805460ff60a01b1960ff60a81b19909116600160a81b1716600160a01b1790555b801562000105576008805460ff60a81b191690555b50613aa680620001166000396000f3fe60806040523480156100565762461bcd60e51b6000908152602060045260226024527f45746865722073656e7420746f206e6f6e2d70617961626c652066756e63746960449081526137b760f11b60645290608490fd5b50600436106102135760003560e01c806306fdde0314610271578063070fad74146102ee578063091030c314610338578063095ea7b31461039b57806318160ddd146104065780631c2f3e3d1461040e5780631e9a69501461043257806323b872dd146104895780632acbf823146104ea578063312f6b8314610570578063313ce567146105785780633373ee4c14610596578063359c4a96146105ef57806339509351146105f7578063398340251461064e57806370a08231146106ae57806372b49d63146106ff578063782d6fe114610707578063787a08a61461075e5780637e90d7ef146107665780638779588c146107b757806389e72095146108085780638dbefee214610895578063919cd40f146108e6578063946776cd146108ee57806395d89b41146108f657806399248ea7146108fe5780639a99b4f014610906578063a457c2d71461095d578063a9059cbb146109b4578063aaf5eb6814610a0b578063adc9772e14610a13578063b4b5ea5714610a6a578063cbcbb50714610abb578063dd62ed3e14610ac3578063e856611814610b1c578063f11b818814610b6d578063f602d83d14610be8578063f8f10dfc14610fda575b62461bcd60e51b6000908152602060045260356024527f436f6e747261637420646f6573206e6f7420686176652066616c6c6261636b206044908152746e6f7220726563656976652066756e6374696f6e7360581b60645290608490fd5b610279611022565b6040805160208082528351818301528351919283929083019185019080838360005b838110156102b357818101518382015260200161029b565b50505050905090810190601f1680156102e05780820380516001836020036101000a031916815260200191505b509250505060405180910390f35b6103366004803603602081101561032f5762461bcd60e51b60009081526020600452601260245260008051602061392f833981519152604490815290606490fd5b50356110b8565b005b610389600480360360208110156103795762461bcd60e51b60009081526020600452601260245260008051602061392f833981519152604490815290606490fd5b50356001600160a01b031661113a565b60408051918252519081900360200190f35b6103f2600480360360408110156103dc5762461bcd60e51b60009081526020600452601260245260008051602061392f833981519152604490815290606490fd5b506001600160a01b03813516906020013561114c565b604080519115158252519081900360200190f35b61038961116a565b610416611170565b604080516001600160a01b039092168252519081900360200190f35b610336600480360360408110156104735762461bcd60e51b60009081526020600452601260245260008051602061392f833981519152604490815290606490fd5b506001600160a01b03813516906020013561117f565b6103f2600480360360608110156104ca5762461bcd60e51b60009081526020600452601260245260008051602061392f833981519152604490815290606490fd5b506001600160a01b038135811691602081013590911690604001356113f5565b6105416004803603604081101561052b5762461bcd60e51b60009081526020600452601260245260008051602061392f833981519152604490815290606490fd5b506001600160a01b03813516906020013561147d565b60405180836001600160801b03168152602001826001600160801b031681526020019250505060405180910390f35b6104166114ae565b6105806114bd565b6040805160ff9092168252519081900360200190f35b610389600480360360408110156105d75762461bcd60e51b60009081526020600452601260245260008051602061392f833981519152604490815290606490fd5b506001600160a01b03813581169160200135166114c6565b6103896114f6565b6103f2600480360360408110156106385762461bcd60e51b60009081526020600452601260245260008051602061392f833981519152604490815290606490fd5b506001600160a01b0381351690602001356114fc565b6103366004803603604081101561068f5762461bcd60e51b60009081526020600452601260245260008051602061392f833981519152604490815290606490fd5b5080356001600160801b031690602001356001600160a01b031661154a565b610389600480360360208110156106ef5762461bcd60e51b60009081526020600452601260245260008051602061392f833981519152604490815290606490fd5b50356001600160a01b0316611690565b6103896116ab565b610389600480360360408110156107485762461bcd60e51b60009081526020600452601260245260008051602061392f833981519152604490815290606490fd5b506001600160a01b0381351690602001356116b1565b6103366118cb565b610389600480360360208110156107a75762461bcd60e51b60009081526020600452601260245260008051602061392f833981519152604490815290606490fd5b50356001600160a01b031661195d565b610389600480360360208110156107f85762461bcd60e51b60009081526020600452601260245260008051602061392f833981519152604490815290606490fd5b50356001600160a01b031661196f565b610336600480360361010081101561084a5762461bcd60e51b60009081526020600452601260245260008051602061392f833981519152604490815290606490fd5b506001600160a01b0381358116916020810135821691604082013591606081013591608082013581169160a08101358216916001600160801b0360c0830135169160e0013516611981565b610389600480360360208110156108d65762461bcd60e51b60009081526020600452601260245260008051602061392f833981519152604490815290606490fd5b50356001600160a01b03166119e1565b610389611a90565b610416611a96565b610279611aa5565b610416611b06565b610336600480360360408110156109475762461bcd60e51b60009081526020600452601260245260008051602061392f833981519152604490815290606490fd5b506001600160a01b038135169060200135611b15565b6103f26004803603604081101561099e5762461bcd60e51b60009081526020600452601260245260008051602061392f833981519152604490815290606490fd5b506001600160a01b038135169060200135611c41565b6103f2600480360360408110156109f55762461bcd60e51b60009081526020600452601260245260008051602061392f833981519152604490815290606490fd5b506001600160a01b038135169060200135611ca9565b610580611cbd565b61033660048036036040811015610a545762461bcd60e51b60009081526020600452601260245260008051602061392f833981519152604490815290606490fd5b506001600160a01b038135169060200135611cc2565b61038960048036036020811015610aab5762461bcd60e51b60009081526020600452601260245260008051602061392f833981519152604490815290606490fd5b50356001600160a01b0316611ed1565b610416611f3f565b61038960048036036040811015610b045762461bcd60e51b60009081526020600452601260245260008051602061392f833981519152604490815290606490fd5b506001600160a01b0381358116916020013516611f4e565b61033660048036036020811015610b5d5762461bcd60e51b60009081526020600452601260245260008051602061392f833981519152604490815290606490fd5b50356001600160a01b0316611f79565b610bbe60048036036020811015610bae5762461bcd60e51b60009081526020600452601260245260008051602061392f833981519152604490815290606490fd5b50356001600160a01b0316611ff2565b604080516001600160801b0394851681529290931660208301528183015290519081900360600190f35b61033660048036036060811015610c295762461bcd60e51b60009081526020600452601260245260008051602061392f833981519152604490815290606490fd5b810190602081018135600160201b811115610c7f5762461bcd60e51b60009081526020600452602a60245260008051602061380c833981519152604490815269185d18481bd9999cd95d60b21b60645290608490fd5b820183602082011115610cce5762461bcd60e51b60009081526020600452602b6024526000805160206138c183398151915260449081526a32b0b2103837b4b73a32b960a91b60645290608490fd5b803590602001918460208302840111600160201b83111715610d2c5762461bcd60e51b60009081526020600452602b60245260008051602061380c83398151915260449081526a30ba30903837b4b73a32b960a91b60645290608490fd5b9190808060200260200160405190810160405280939291908181526020018383602002808284376000920191909152509295949360208101935035915050600160201b811115610db75762461bcd60e51b60009081526020600452602a60245260008051602061380c833981519152604490815269185d18481bd9999cd95d60b21b60645290608490fd5b820183602082011115610e065762461bcd60e51b60009081526020600452602b6024526000805160206138c183398151915260449081526a32b0b2103837b4b73a32b960a91b60645290608490fd5b803590602001918460208302840111600160201b83111715610e645762461bcd60e51b60009081526020600452602b60245260008051602061380c83398151915260449081526a30ba30903837b4b73a32b960a91b60645290608490fd5b9190808060200260200160405190810160405280939291908181526020018383602002808284376000920191909152509295949360208101935035915050600160201b811115610eef5762461bcd60e51b60009081526020600452602a60245260008051602061380c833981519152604490815269185d18481bd9999cd95d60b21b60645290608490fd5b820183602082011115610f3e5762461bcd60e51b60009081526020600452602b6024526000805160206138c183398151915260449081526a32b0b2103837b4b73a32b960a91b60645290608490fd5b803590602001918460208302840111600160201b83111715610f9c5762461bcd60e51b60009081526020600452602b60245260008051602061380c83398151915260449081526a30ba30903837b4b73a32b960a91b60645290608490fd5b919080806020026020016040519081016040528093929190818152602001838360200280828437600092019190915250929550612020945050505050565b6103366004803603602081101561101b5762461bcd60e51b60009081526020600452601260245260008051602061392f833981519152604490815290606490fd5b5035612128565b60038054604080516020601f60026000196101006001881615020190951694909404938401819004810282018101909252828152606093909290918301828280156110ae5780601f10611083576101008083540402835291602001916110ae565b820191906000526020600020905b81548152906001019060200180831161109157829003601f168201915b5050505050905090565b600a546001600160a01b031633146111015760405162461bcd60e51b815260040180806020018281038252602d81526020018061384e602d913960400191505060405180910390fd5b6040818155805182815290517f769c25b822a0d0101f3a95e3d8a3d00777acfc3c55fd63c753233abfe1e177389181900360200190a150565b60446020526000908152604090205481565b60006111606111596121ac565b84846121b0565b5060015b92915050565b60025490565b6008546001600160a01b031681565b6002600c5414156111c5576040805162461bcd60e51b815260206004820152601f60248201526000805160206137ca833981519152604482015290519081900360640190fd5b6002600c5580611212576040805162461bcd60e51b81526020600482015260136024820152721253959053125117d6915493d7d05353d55395606a1b604482015290519081900360640190fd5b6001600160a01b038216611263576040805162461bcd60e51b815260206004820152601360248201527252454445454d5f5a45524f5f4144445245535360681b604482015290519081900360640190fd5b336000908152604460205260409081902054905461128290829061229c565b42116112cd576040805162461bcd60e51b815260206004820152601560248201527424a729aaa32324a1a4a2a72a2fa1a7a7a62227aba760591b604482015290519081900360640190fd5b6041546112ef6112e86040548461229c90919063ffffffff16565b42906122f4565b111561133c576040805162461bcd60e51b8152602060048201526017602482015276155394d51052d157d5d2539113d5d7d192539254d21151604a1b604482015290519081900360640190fd5b600061134733611690565b90506000818411611358578361135a565b815b905061136833836001612336565b5061137333826123d4565b61137d82826122f4565b61139257336000908152604460205260408120555b603e546113a9906001600160a01b031686836124be565b6040805182815290516001600160a01b0387169133917fd12200efa34901b99367694174c3b0d32c99585fdf37c7c26892136ddd0836d99181900360200190a350506001600c55505050565b6000611402848484612510565b6114728461140e6121ac565b61146d85604051806060016040528060288152602001613970602891396001600160a01b038a1660009081526001602052604081209061144c6121ac565b6001600160a01b0316815260208101919091526040016000205491906125d6565b6121b0565b5060015b9392505050565b60066020908152600092835260408084209091529082529020546001600160801b0380821691600160801b90041682565b603e546001600160a01b031681565b60055460ff1690565b6001600160a01b038082166000908152600b60209081526040808320938616835260029093019052205492915050565b60415481565b60006111606115096121ac565b8461146d856001600061151a6121ac565b6001600160a01b03908116825260208083019390935260409182016000908120918c16815292529020549061229c565b600a546001600160a01b031633146115a1576040805162461bcd60e51b815260206004820152601560248201527427a7262cafa2a6a4a9a9a4a7a72fa6a0a720a3a2a960591b604482015290519081900360640190fd5b6000816001600160a01b03166370a08231306040518263ffffffff1660e01b815260040180826001600160a01b0316815260200191505060206040518083038186803b1580156116275762461bcd60e51b60009081526020600452602560245260008051602061390f83398151915260449081526420636f646560d81b60645290608490fd5b505afa15801561163b573d6000803e3d6000fd5b505050506040513d602081101561167c5762461bcd60e51b60009081526020600452601260245260008051602061392f833981519152604490815290606490fd5b5051905061168b83828461266d565b505050565b6001600160a01b031660009081526020819052604090205490565b60405481565b60004282106116fc576040805162461bcd60e51b81526020600482015260126024820152711b9bdd081e595d0819195d195c9b5a5b995960721b604482015290519081900360640190fd5b6001600160a01b03831660009081526007602052604090205480611724576000915050611164565b6001600160a01b0384166000908152600660209081526040808320600019850184529091529020546001600160801b0316831061179b576001600160a01b0384166000908152600660209081526040808320600019909401835292905220546001600160801b03600160801b909104169050611164565b6001600160a01b03841660009081526006602090815260408083208380529091529020546001600160801b03168310156117d9576000915050611164565b600060001982015b8181111561188d5760028282030481036117f96136d2565b506001600160a01b03871660009081526006602090815260408083208484528252918290208251808401909352546001600160801b03808216808552600160801b909204169183019190915287141561186557602001516001600160801b031694506111649350505050565b80516001600160801b031687111561187f57819350611886565b6001820392505b50506117e1565b506001600160a01b038516600090815260066020908152604080832093835292905220546001600160801b03600160801b9091041691505092915050565b6118d433611690565b611923576040805162461bcd60e51b815260206004820152601b60248201527a24a72b20a624a22fa120a620a721a2afa7a72fa1a7a7a62227aba760291b604482015290519081900360640190fd5b33600081815260446020526040808220429055517ff52f50426b32362d3e6bb8cb36b7074756b224622def6352a59eac7f66ebe6e89190a2565b60436020526000908152604090205481565b60076020526000908152604090205481565b6119d7888888888888886040518060400160405280600b81526020016a14dd185ad9590815d1531360aa1b815250604051806040016040528060078152602001661cdd1ad5d1531360ca1b81525060128b6126f1565b5050505050505050565b60408051600180825281830190925260009160609190816020015b611a046136e9565b8152602001906001900390816119fc5790505090506040518060600160405280306001600160a01b03168152602001611a3c85611690565b8152602001611a4961116a565b81525081600081518110611a5957fe5b6020026020010181905250611476611a7184836127db565b6001600160a01b0385166000908152604360205260409020549061229c565b60095481565b6042546001600160a01b031681565b60048054604080516020601f60026000196101006001881615020190951694909404938401819004810282018101909252828152606093909290918301828280156110ae5780601f10611083576101008083540402835291602001916110ae565b603f546001600160a01b031681565b6002600c541415611b5b576040805162461bcd60e51b815260206004820152601f60248201526000805160206137ca833981519152604482015290519081900360640190fd5b6002600c556000611b7633611b6f81611690565b6000612336565b905060006000198314611b895782611b8b565b815b9050611bc8816040518060400160405280600e81526020016d1253959053125117d05353d5539560921b815250846125d69092919063ffffffff16565b33600090815260436020526040902055604254603f54611bf6916001600160a01b03918216911686846128cf565b6040805182815290516001600160a01b0386169133917f9310ccfcb8de723f578a9e4282ea9f521f05ae40dc08f3068dfad528a65ee3c79181900360200190a350506001600c555050565b6000611160611c4e6121ac565b8461146d85604051806060016040528060258152602001613a4c6025913960016000611c786121ac565b6001600160a01b03908116825260208083019390935260409182016000908120918d168152925290205491906125d6565b6000611160611cb66121ac565b8484612510565b601281565b6002600c541415611d08576040805162461bcd60e51b815260206004820152601f60248201526000805160206137ca833981519152604482015290519081900360640190fd5b6002600c5580611d55576040805162461bcd60e51b81526020600482015260136024820152721253959053125117d6915493d7d05353d55395606a1b604482015290519081900360640190fd5b6001600160a01b038216611da5576040805162461bcd60e51b81526020600482015260126024820152715354414b455f5a45524f5f4144445245535360701b604482015290519081900360640190fd5b6000611db083611690565b90506000611dc7843084611dc261116a565b612929565b90508015611e3e57604080516001600160a01b038616815260208101839052815160008051602061387b833981519152929181900390910190a16001600160a01b038416600090815260436020526040902054611e24908261229c565b6001600160a01b0385166000908152604360205260409020555b611e4b60008486856129e7565b6001600160a01b038516600090815260446020526040902055611e6e8484612ac5565b603e54611e86906001600160a01b03163330866128cf565b6040805184815290516001600160a01b0386169133917f5dac0c1b1112564a045ba943c9d50270893e8e826c49be8e7073adc713ab7bd79181900360200190a350506001600c555050565b6001600160a01b03811660009081526007602052604081205480611ef6576000611f2f565b6001600160a01b038316600090815260066020908152604080832060001985018452909152902054600160801b90046001600160801b03165b6001600160801b03169392505050565b600a546001600160a01b031681565b6001600160a01b03918216600090815260016020908152604080832093909416825291909152205490565b600a546001600160a01b03163314611fd0576040805162461bcd60e51b815260206004820152601560248201527427a7262cafa2a6a4a9a9a4a7a72fa6a0a720a3a2a960591b604482015290519081900360640190fd5b600a80546001600160a01b0319166001600160a01b0392909216919091179055565b600b60205260009081526040902080546001909101546001600160801b0380831692600160801b9004169083565b600a546001600160a01b03163314612077576040805162461bcd60e51b815260206004820152601560248201527427a7262cafa2a6a4a9a9a4a7a72fa6a0a720a3a2a960591b604482015290519081900360640190fd5b81518351148015612089575080518251145b6120ca576040805162461bcd60e51b815260206004820152600d60248201526c504152414d5f4c454e4754485360981b604482015290519081900360640190fd5b60005b83518110156121225761211a8482815181106120e557fe5b60200260200101518483815181106120f957fe5b602002602001015184848151811061210d57fe5b602002602001015161266d565b6001016120cd565b50505050565b600a546001600160a01b031633146121715760405162461bcd60e51b815260040180806020018281038252602d81526020018061384e602d913960400191505060405180910390fd5b60418190556040805182815290517f49937bbca38e1f73dc981b301265d4fe52f24708d7e5c3c4183ed33b6bda06659181900360200190a150565b3390565b6001600160a01b0383166121f55760405162461bcd60e51b81526004018080602001828103825260248152602001806139fe6024913960400191505060405180910390fd5b6001600160a01b03821661223a5760405162461bcd60e51b815260040180806020018281038252602281526020018061382c6022913960400191505060405180910390fd5b6001600160a01b03808416600081815260016020908152604080832094871680845294825291829020859055815185815291517f8c5be1e5ebec7d5bd14f71427d1e84f3dd0314c0f7b2291e5b200ac8c7c3b9259281900390910190a3505050565b600082820183811015611476576040805162461bcd60e51b815260206004820152601b60248201527a536166654d6174683a206164646974696f6e206f766572666c6f7760281b604482015290519081900360640190fd5b600061147683836040518060400160405280601e81526020017f536166654d6174683a207375627472616374696f6e206f766572666c6f7700008152506125d6565b600080612347853086611dc261116a565b6001600160a01b0386166000908152604360205260408120549192509061236e908361229c565b905081156123cb578315612398576001600160a01b03861660009081526043602052604090208190555b604080516001600160a01b038816815260208101849052815160008051602061387b833981519152929181900390910190a15b95945050505050565b6001600160a01b0382166124195760405162461bcd60e51b81526004018080602001828103825260218152602001806139b86021913960400191505060405180910390fd5b61242582600083612ba3565b612462816040518060600160405280602281526020016137ea602291396001600160a01b03851660009081526020819052604090205491906125d6565b6001600160a01b03831660009081526020819052604090205560025461248890826122f4565b6002556040805182815290516000916001600160a01b038516916000805160206139988339815191529181900360200190a35050565b604080516001600160a01b038416602482015260448082018490528251808303909101815260649091019091526020810180516001600160e01b031663a9059cbb60e01b17905261168b908490612ce6565b600061251b84611690565b905061252984826001612336565b50826001600160a01b0316846001600160a01b0316146125cb57600061254e84611690565b905061255c84826001612336565b506001600160a01b038516600090815260446020526040902054612582818587856129e7565b6001600160a01b03861660009081526044602052604090205582841480156125a957508015155b156125c8576001600160a01b0386166000908152604460205260408120555b50505b612122848484612ec9565b600081848411156126655760405162461bcd60e51b81526004018080602001828103825283818151815260200191508051906020019080838360005b8381101561262a578181015183820152602001612612565b50505050905090810190601f1680156126575780820380516001836020036101000a031916815260200191505b509250505060405180910390fd5b505050900390565b6001600160a01b0381166000908152600b60205260409020612690828285613012565b5080546001600160801b0385166001600160801b03199091168117825560408051918252516001600160a01b038416917f87fa03892a0556cb6b8f97e6d533a150d4d55fcbf275fff5fa003fa636bcc7fa919081900360200190a250505050565b600854600160a81b900460ff16806127135750600854600160a01b900460ff16155b61274e5760405162461bcd60e51b815260040180806020018281038252602e8152602001806138e1602e913960400191505060405180910390fd5b600854600160a81b900460ff16158015612785576008805460ff60a01b1960ff60a81b19909116600160a81b1716600160a01b1790555b61278d6130cb565b61279885858561317e565b6127ab87876001600160801b03166131be565b6127b98c8c8c8c8c87613238565b80156127cd576008805460ff60a81b191690555b505050505050505050505050565b600080805b83518110156128c7576000600b60008684815181106127fb57fe5b602090810291909101810151516001600160a01b031682528101919091526040016000908120600181015481548851929450612863926001600160801b0380831692600160801b900416908a908890811061285257fe5b602002602001015160400151613290565b90506128b86128b187858151811061287757fe5b602002602001015160200151838560020160008c6001600160a01b03166001600160a01b031681526020019081526020016000205461332f565b859061229c565b935050508060010190506127e0565b509392505050565b604080516001600160a01b0380861660248301528416604482015260648082018490528251808303909101815260849091019091526020810180516001600160e01b03166323b872dd60e01b179052612122908590612ce6565b6001600160a01b038084166000908152600b602090815260408083209388168352600284019091528120549091908280612964888588613012565b90508083146129d95786156129815761297e87828561332f565b91505b6001600160a01b03808a16600081815260028701602090815260409182902085905581518581529151938c16937fbb123b5c06d5408bbea3c4fef481578175cfb432e3b482c6186f02ed9086585b9281900390910190a35b50925050505b949350505050565b6001600160a01b03821660009081526044602052604081205480612a0f5760009150506129df565b6000612a32604154612a2c604054426122f490919063ffffffff16565b906122f4565b905081811115612a455760009150612a9f565b6000878211612a545787612a56565b425b905082811015612a6b578293505050506129df565b612a9b612a78888761229c565b612a95612a85888761334d565b612a8f8b8661334d565b9061229c565b906133a6565b9250505b506001600160a01b03841660009081526044602052604090208190559050949350505050565b6001600160a01b038216612b20576040805162461bcd60e51b815260206004820152601f60248201527f45524332303a206d696e7420746f20746865207a65726f206164647265737300604482015290519081900360640190fd5b612b2c60008383612ba3565b600254612b39908261229c565b6002556001600160a01b038216600090815260208190526040902054612b5f908261229c565b6001600160a01b0383166000818152602081815260408083209490945583518581529351929391926000805160206139988339815191529281900390910190a35050565b816001600160a01b0316836001600160a01b03161415612bc25761168b565b6001600160a01b03831615612bf4576000612bdc84611690565b9050612bf28482612bed81866122f4565b6133e5565b505b6001600160a01b03821615612c21576000612c0e83611690565b9050612c1f8382612bed818661229c565b505b6008546001600160a01b0316801561212257806001600160a01b0316634a3931498585856040518463ffffffff1660e01b815260040180846001600160a01b03168152602001836001600160a01b031681526020018281526020019350505050600060405180830381600087803b158015612cd25762461bcd60e51b60009081526020600452602560245260008051602061390f83398151915260449081526420636f646560d81b60645290608490fd5b505af11580156119d7573d6000803e3d6000fd5b612cf8826001600160a01b0316613563565b612d49576040805162461bcd60e51b815260206004820152601f60248201527f5361666545524332303a2063616c6c20746f206e6f6e2d636f6e747261637400604482015290519081900360640190fd5b60006060836001600160a01b0316836040518082805190602001908083835b60208310612d875780518252601f199092019160209182019101612d68565b6001836020036101000a0380198251168184511680821785525050505050509050019150506000604051808303816000865af19150503d8060008114612de9576040519150601f19603f3d011682016040523d82523d6000602084013e612dee565b606091505b509150915081612e45576040805162461bcd60e51b815260206004820181905260248201527f5361666545524332303a206c6f772d6c6576656c2063616c6c206661696c6564604482015290519081900360640190fd5b80511561212257808060200190516020811015612e8c5762461bcd60e51b60009081526020600452601260245260008051602061392f833981519152604490815290606490fd5b50516121225760405162461bcd60e51b815260040180806020018281038252602a815260200180613a22602a913960400191505060405180910390fd5b6001600160a01b038316612f0e5760405162461bcd60e51b81526004018080602001828103825260258152602001806139d96025913960400191505060405180910390fd5b6001600160a01b038216612f535760405162461bcd60e51b81526004018080602001828103825260238152602001806137a76023913960400191505060405180910390fd5b612f5e838383612ba3565b612f9b8160405180606001604052806026815260200161389b602691396001600160a01b03861660009081526020819052604090205491906125d6565b6001600160a01b038085166000908152602081905260408082209390935590841681522054612fca908261229c565b6001600160a01b0380841660008181526020818152604091829020949094558051858152905191939287169260008051602061399883398151915292918290030190a3505050565b6001820154825460009190600160801b90046001600160801b03164281141561303d57509050611476565b84546000906130589084906001600160801b03168488613290565b90508281146130a857600186018190556040805182815290516001600160a01b038916917f5777ca300dfe5bead41006fbce4389794dbc0ed8d6cccebfaf94630aa04184bc919081900360200190a25b85546001600160801b03428116600160801b029116178655925050509392505050565b600854600160a81b900460ff16806130ed5750600854600160a01b900460ff16155b6131285760405162461bcd60e51b815260040180806020018281038252602e8152602001806138e1602e913960400191505060405180910390fd5b600854600160a81b900460ff1615801561315f576008805460ff60a01b1960ff60a81b19909116600160a81b1716600160a01b1790555b61316761359c565b801561317b576008805460ff60a81b191690555b50565b8251613191906003906020860190613713565b5081516131a5906004906020850190613713565b506005805460ff191660ff929092169190911790555050565b6001600160a01b038216613208576040805162461bcd60e51b815260206004820152600c60248201526b5a45524f5f4144445245535360a01b604482015290519081900360640190fd5b613212428261229c565b60095550600a80546001600160a01b0319166001600160a01b0392909216919091179055565b603e80546001600160a01b038089166001600160a01b031992831617909255603f80548884169083161790556040869055604185905560428054928516929091169190911790556132888161364b565b505050505050565b600083158061329d575081155b806132b0575042836001600160801b0316145b806132c65750600954836001600160801b031610155b156132d25750836129df565b600060095442116132e357426132e7565b6009545b905060006132fe826001600160801b0387166122f4565b905061332487612a8f86612a95670de0b6b3a764000061331e8c8861334d565b9061334d565b979650505050505050565b60006129df670de0b6b3a7640000612a9561334a86866122f4565b87905b60008261335c57506000611164565b8282028284828161336957fe5b04146114765760405162461bcd60e51b815260040180806020018281038252602181526020018061394f6021913960400191505060405180910390fd5b600061147683836040518060400160405280601a815260200179536166654d6174683a206469766973696f6e206279207a65726f60301b81525061366d565b6001600160a01b0383166000908152600760209081526040808320546006909252909120429190811580159061344a57506001600160801b03831681600061342e8560016122f4565b81526020810191909152604001600020546001600160801b0316145b1561348e578381600061345e8560016122f4565b8152602081019190915260400160002080546001600160801b03928316600160801b029216919091179055613509565b6040805180820182526001600160801b0380861682528681166020808401918252600087815290869052939093209151825493518216600160801b029082166001600160801b031990941693909317169190911790556134ef82600161229c565b6001600160a01b0387166000908152600760205260409020555b604080516001600160a01b03881681526001600160801b03808816602083015286168183015290517f2cd3c83ddac2953ee75f53265d9ea4463eaf05030e5459a1b7e63819b7ce88f79181900360600190a1505050505050565b6000813f7fc5d2460186f7233c927e7db2dcc703c0e500b653ca82273b7bfad8045d85a4708181148015906129df575050151592915050565b600854600160a81b900460ff16806135be5750600854600160a01b900460ff16155b6135f95760405162461bcd60e51b815260040180806020018281038252602e8152602001806138e1602e913960400191505060405180910390fd5b600854600160a81b900460ff16158015613630576008805460ff60a01b1960ff60a81b19909116600160a81b1716600160a01b1790555b6001600c55801561317b576008805460ff60a81b1916905550565b600880546001600160a01b0319166001600160a01b0392909216919091179055565b600081836136bc5760405162461bcd60e51b815260206004820181815283516024840152835190928392604490910191908501908083836000831561262a578181015183820152602001612612565b5060008385816136c857fe5b0495945050505050565b604080518082019091526000808252602082015290565b604051806060016040528060006001600160a01b0316815260200160008152602001600081525090565b828054600181600116156101000203166002900490600052602060002090601f016020900481019282601f1061375457805160ff1916838001178555613781565b82800160010185558215613781579182015b82811115613781578251825591602001919060010190613766565b5061378d929150613791565b5090565b5b8082111561378d576000815560010161379256fe45524332303a207472616e7366657220746f20746865207a65726f20616464726573735265656e7472616e637947756172643a207265656e7472616e742063616c6c0045524332303a206275726e20616d6f756e7420657863656564732062616c616e63654142492063616c6c64617461206465636f64696e673a20696e76616c6964206445524332303a20617070726f766520746f20746865207a65726f20616464726573734f6e6c7920656d697373696f6e73206d616e616765722063616e2063616c6c20746869732066756e6374696f6e2468f9268c60ad90e2d49edb0032c8a001e733ae888b3ab8e982edf535be1a7645524332303a207472616e7366657220616d6f756e7420657863656564732062616c616e63654142492063616c6c64617461206465636f64696e673a20696e76616c69642068496e697469616c697a61626c653a20636f6e747261637420697320616c726561647920696e697469616c697a656454617267657420636f6e747261637420646f6573206e6f7420636f6e7461696e43616c6c6461746120746f6f2073686f72740000000000000000000000000000536166654d6174683a206d756c7469706c69636174696f6e206f766572666c6f7745524332303a207472616e7366657220616d6f756e74206578636565647320616c6c6f77616e6365ddf252ad1be2c89b69c2b068fc378daa952ba7f163c4a11628f55a4df523b3ef45524332303a206275726e2066726f6d20746865207a65726f206164647265737345524332303a207472616e736665722066726f6d20746865207a65726f206164647265737345524332303a20617070726f76652066726f6d20746865207a65726f20616464726573735361666545524332303a204552433230206f7065726174696f6e20646964206e6f74207375636365656445524332303a2064656372656173656420616c6c6f77616e63652062656c6f77207a65726fa264697066735822122029397ff5729a46d46d03641d2a75e1fe32eaaf80bcf377ebb64da9e0673e75c164736f6c634300060c0033496e697469616c697a61626c653a20636f6e747261637420697320616c726561647920696e697469616c697a6564","linkReferences":{}},"methodIdentifiers":{"COOLDOWN_SECONDS()":"72b49d63","DISTRIBUTION_END()":"919cd40f","EMISSION_MANAGER()":"cbcbb507","PRECISION()":"aaf5eb68","REWARDS_VAULT()":"946776cd","REWARD_TOKEN()":"99248ea7","STAKED_TOKEN()":"312f6b83","UNSTAKE_WINDOW()":"359c4a96","_countsSnapshots(address)":"8779588c","_governance()":"1c2f3e3d","_snapshots(address,uint256)":"2acbf823","allowance(address,address)":"dd62ed3e","approve(address,uint256)":"095ea7b3","assets(address)":"f11b8188","balanceOf(address)":"70a08231","claimRewards(address,uint256)":"9a99b4f0","configureAsset(uint128,address)":"39834025","configureAssets(uint128[],uint256[],address[])":"f602d83d","cooldown()":"787a08a6","decimals()":"313ce567","decreaseAllowance(address,uint256)":"a457c2d7","getCurrentVotes(address)":"b4b5ea57","getPriorVotes(address,uint256)":"782d6fe1","getTotalRewardsBalance(address)":"8dbefee2","getUserAssetData(address,address)":"3373ee4c","increaseAllowance(address,uint256)":"39509351","initialize(address,address,uint256,uint256,address,address,uint128,address)":"89e72095","name()":"06fdde03","redeem(address,uint256)":"1e9a6950","setCoolDownSeconds(uint256)":"070fad74","setEmissionsManager(address)":"e8566118","setUnstakeWindow(uint256)":"f8f10dfc","stake(address,uint256)":"adc9772e","stakerRewardsToClaim(address)":"7e90d7ef","stakersCooldowns(address)":"091030c3","symbol()":"95d89b41","totalSupply()":"18160ddd","transfer(address,uint256)":"a9059cbb","transferFrom(address,address,uint256)":"23b872dd"},"id":20}