{"abi":[{"type":"function","name":"approve","inputs":[{"name":"token","type":"address","internalType":"contract IERC20"},{"name":"recipient","type":"address","internalType":"address"},{"name":"amount","type":"uint256","internalType":"uint256"}],"outputs":[],"stateMutability":"nonpayable"},{"type":"function","name":"getFundsAdmin","inputs":[],"outputs":[{"name":"","type":"address","internalType":"address"}],"stateMutability":"view"},{"type":"function","name":"initialize","inputs":[{"name":"reserveController","type":"address","internalType":"address"}],"outputs":[],"stateMutability":"nonpayable"},{"type":"function","name":"setFundsAdmin","inputs":[{"name":"admin","type":"address","internalType":"address"}],"outputs":[],"stateMutability":"nonpayable"},{"type":"function","name":"transfer","inputs":[{"name":"token","type":"address","internalType":"contract IERC20"},{"name":"recipient","type":"address","internalType":"address"},{"name":"amount","type":"uint256","internalType":"uint256"}],"outputs":[],"stateMutability":"nonpayable"},{"type":"event","name":"NewFundsAdmin","inputs":[{"name":"fundsAdmin","type":"address","indexed":true,"internalType":"address"}],"anonymous":false}],"bytecode":{"object":"0x60806040523480156100565762461bcd60e51b6000908152602060045260226024527f45746865722073656e7420746f206e6f6e2d70617961626c652066756e63746960449081526137b760f11b60645290608490fd5b5061092a806100666000396000f3fe60806040523480156100565762461bcd60e51b6000908152602060045260226024527f45746865722073656e7420746f206e6f6e2d70617961626c652066756e63746960449081526137b760f11b60645290608490fd5b506004361061009d5760003560e01c806306bc2ee0146100fb578063beabacc81461011f578063c4d66de814610182578063e1f21c67146101d3578063ed0d237114610234575b62461bcd60e51b6000908152602060045260356024527f436f6e747261637420646f6573206e6f7420686176652066616c6c6261636b206044908152746e6f7220726563656976652066756e6374696f6e7360581b60645290608490fd5b610103610285565b604080516001600160a01b039092168252519081900360200190f35b610180600480360360608110156101605762461bcd60e51b6000908152602060045260126024526000805160206108d5833981519152604490815290606490fd5b506001600160a01b03813581169160208101359091169060400135610294565b005b610180600480360360208110156101c35762461bcd60e51b6000908152602060045260126024526000805160206108d5833981519152604490815290606490fd5b50356001600160a01b0316610430565b610180600480360360608110156102145762461bcd60e51b6000908152602060045260126024526000805160206108d5833981519152604490815290606490fd5b506001600160a01b03813581169160208101359091169060400135610520565b610180600480360360208110156102755762461bcd60e51b6000908152602060045260126024526000805160206108d5833981519152604490815290606490fd5b50356001600160a01b031661065f565b6033546001600160a01b031690565b6033546001600160a01b031633146102e9576040805162461bcd60e51b815260206004820152601360248201527227a7262cafa12cafa32aa72229afa0a226a4a760691b604482015290519081900360640190fd5b60026001541415610341576040805162461bcd60e51b815260206004820152601f60248201527f5265656e7472616e637947756172643a207265656e7472616e742063616c6c00604482015290519081900360640190fd5b60026001556040805163a9059cbb60e01b81526001600160a01b0384811660048301526024820184905291519185169163a9059cbb916044808201926020929091908290030181600087803b1580156103d05762461bcd60e51b6000908152602060045260256024526000805160206108b583398151915260449081526420636f646560d81b60645290608490fd5b505af11580156103e4573d6000803e3d6000fd5b505050506040513d60208110156104255762461bcd60e51b6000908152602060045260126024526000805160206108d5833981519152604490815290606490fd5b505060018055505050565b600054610100900460ff1680610449575060005460ff16155b6104845760405162461bcd60e51b815260040180806020018281038252602e815260200180610887602e913960400191505060405180910390fd5b600054610100900460ff161580156104af576000805460ff1961ff0019909116610100171660011790555b6001600160a01b0382166104f9576040805162461bcd60e51b815260206004820152600c60248201526b5a45524f5f4144445245535360a01b604482015290519081900360640190fd5b6105016106c0565b61050a8261075b565b801561051c576000805461ff00191690555b5050565b6033546001600160a01b03163314610575576040805162461bcd60e51b815260206004820152601360248201527227a7262cafa12cafa32aa72229afa0a226a4a760691b604482015290519081900360640190fd5b826001600160a01b031663095ea7b383836040518363ffffffff1660e01b815260040180836001600160a01b0316815260200182815260200192505050602060405180830381600087803b1580156106035762461bcd60e51b6000908152602060045260256024526000805160206108b583398151915260449081526420636f646560d81b60645290608490fd5b505af1158015610617573d6000803e3d6000fd5b505050506040513d60208110156106585762461bcd60e51b6000908152602060045260126024526000805160206108d5833981519152604490815290606490fd5b5050505050565b6033546001600160a01b031633146106b4576040805162461bcd60e51b815260206004820152601360248201527227a7262cafa12cafa32aa72229afa0a226a4a760691b604482015290519081900360640190fd5b6106bd8161075b565b50565b600054610100900460ff16806106d9575060005460ff16155b6107145760405162461bcd60e51b815260040180806020018281038252602e815260200180610887602e913960400191505060405180910390fd5b600054610100900460ff1615801561073f576000805460ff1961ff0019909116610100171660011790555b6107476107ef565b80156106bd576000805461ff001916905550565b6001600160a01b0381166107a5576040805162461bcd60e51b815260206004820152600c60248201526b5a45524f5f4144445245535360a01b604482015290519081900360640190fd5b603380546001600160a01b0319166001600160a01b0383169081179091556040517f1ab77a654795da4cfe37c33188e862203ade9a5c7f1a9d4957669b3ccbec9e1190600090a250565b600054610100900460ff1680610808575060005460ff16155b6108435760405162461bcd60e51b815260040180806020018281038252602e815260200180610887602e913960400191505060405180910390fd5b600054610100900460ff1615801561086e576000805460ff1961ff0019909116610100171660011790555b6001805580156106bd576000805461ff00191690555056fe496e697469616c697a61626c653a20636f6e747261637420697320616c726561647920696e697469616c697a656454617267657420636f6e747261637420646f6573206e6f7420636f6e7461696e43616c6c6461746120746f6f2073686f72740000000000000000000000000000a2646970667358221220f288f46f10eb9da3ba4069deec42820d3d565d53f6e41838d24fdd4f11cc4e3964736f6c634300060c0033","linkReferences":{}},"methodIdentifiers":{"approve(address,address,uint256)":"e1f21c67","getFundsAdmin()":"06bc2ee0","initialize(address)":"c4d66de8","setFundsAdmin(address)":"ed0d2371","transfer(address,address,uint256)":"beabacc8"},"id":6}