{"abi":[{"type":"function","name":"_countsSnapshots","inputs":[{"name":"","type":"address","internalType":"address"}],"outputs":[{"name":"","type":"uint256","internalType":"uint256"}],"stateMutability":"view"},{"type":"function","name":"_governance","inputs":[],"outputs":[{"name":"","type":"address","internalType":"contract ITransferHook"}],"stateMutability":"view"},{"type":"function","name":"_snapshots","inputs":[{"name":"","type":"address","internalType":"address"},{"name":"","type":"uint256","internalType":"uint256"}],"outputs":[{"name":"blockTimestamp","type":"uint128","internalType":"uint128"},{"name":"value","type":"uint128","internalType":"uint128"}],"stateMutability":"view"},{"type":"function","name":"allowance","inputs":[{"name":"owner","type":"address","internalType":"address"},{"name":"spender","type":"address","internalType":"address"}],"outputs":[{"name":"","type":"uint256","internalType":"uint256"}],"stateMutability":"view"},{"type":"function","name":"approve","inputs":[{"name":"spender","type":"address","internalType":"address"},{"name":"amount","type":"uint256","internalType":"uint256"}],"outputs":[{"name":"","type":"bool","internalType":"bool"}],"stateMutability":"nonpayable"},{"type":"function","name":"balanceOf","inputs":[{"name":"account","type":"address","internalType":"address"}],"outputs":[{"name":"","type":"uint256","internalType":"uint256"}],"stateMutability":"view"},{"type":"function","name":"decimals","inputs":[],"outputs":[{"name":"","type":"uint8","internalType":"uint8"}],"stateMutability":"view"},{"type":"function","name":"decreaseAllowance","inputs":[{"name":"spender","type":"address","internalType":"address"},{"name":"subtractedValue","type":"uint256","internalType":"uint256"}],"outputs":[{"name":"","type":"bool","internalType":"bool"}],"stateMutability":"nonpayable"},{"type":"function","name":"getCurrentVotes","inputs":[{"name":"account","type":"address","internalType":"address"}],"outputs":[{"name":"","type":"uint256","internalType":"uint256"}],"stateMutability":"view"},{"type":"function","name":"getPriorVotes","inputs":[{"name":"account","type":"address","internalType":"address"},{"name":"blockTimestamp","type":"uint256","internalType":"uint256"}],"outputs":[{"name":"","type":"uint256","internalType":"uint256"}],"stateMutability":"view"},{"type":"function","name":"increaseAllowance","inputs":[{"name":"spender","type":"address","internalType":"address"},{"name":"addedValue","type":"uint256","internalType":"uint256"}],"outputs":[{"name":"","type":"bool","internalType":"bool"}],"stateMutability":"nonpayable"},{"type":"function","name":"name","inputs":[],"outputs":[{"name":"","type":"string","internalType":"string"}],"stateMutability":"view"},{"type":"function","name":"symbol","inputs":[],"outputs":[{"name":"","type":"string","internalType":"string"}],"stateMutability":"view"},{"type":"function","name":"totalSupply","inputs":[],"outputs":[{"name":"","type":"uint256","internalType":"uint256"}],"stateMutability":"view"},{"type":"function","name":"transfer","inputs":[{"name":"recipient","type":"address","internalType":"address"},{"name":"amount","type":"uint256","internalType":"uint256"}],"outputs":[{"name":"","type":"bool","internalType":"bool"}],"stateMutability":"nonpayable"},{"type":"function","name":"transferFrom","inputs":[{"name":"sender","type":"address","internalType":"address"},{"name":"recipient","type":"address","internalType":"address"},{"name":"amount","type":"uint256","internalType":"uint256"}],"outputs":[{"name":"","type":"bool","internalType":"bool"}],"stateMutability":"nonpayable"},{"type":"event","name":"Approval","inputs":[{"name":"owner","type":"address","indexed":true,"internalType":"address"},{"name":"spender","type":"address","indexed":true,"internalType":"address"},{"name":"value","type":"uint256","indexed":false,"internalType":"uint256"}],"anonymous":false},{"type":"event","name":"SnapshotDone","inputs":[{"name":"owner","type":"address","indexed":false,"internalType":"address"},{"name":"oldValue","type":"uint128","indexed":false,"internalType":"uint128"},{"name":"newValue","type":"uint128","indexed":false,"internalType":"uint128"}],"anonymous":false},{"type":"event","name":"Transfer","inputs":[{"name":"from","type":"address","indexed":true,"internalType":"address"},{"name":"to","type":"address","indexed":true,"internalType":"address"},{"name":"value","type":"uint256","indexed":false,"internalType":"uint256"}],"anonymous":false}],"bytecode":{"object":"0x60806040523480156100565762461bcd60e51b6000908152602060045260226024527f45746865722073656e7420746f206e6f6e2d70617961626c652066756e63746960449081526137b760f11b60645290608490fd5b506113b4806100666000396000f3fe60806040523480156100565762461bcd60e51b6000908152602060045260226024527f45746865722073656e7420746f206e6f6e2d70617961626c652066756e63746960449081526137b760f11b60645290608490fd5b50600436106101165760003560e01c806306fdde0314610174578063095ea7b3146101f157806318160ddd1461025c5780631c2f3e3d1461027657806323b872dd1461029a5780632acbf823146102fb578063313ce56714610381578063395093511461039f57806370a08231146103f6578063782d6fe1146104475780638779588c1461049e57806395d89b41146104ef578063a457c2d7146104f7578063a9059cbb1461054e578063b4b5ea57146105a5578063dd62ed3e146105f6575b62461bcd60e51b6000908152602060045260356024527f436f6e747261637420646f6573206e6f7420686176652066616c6c6261636b206044908152746e6f7220726563656976652066756e6374696f6e7360581b60645290608490fd5b61017c61064f565b6040805160208082528351818301528351919283929083019185019080838360005b838110156101b657818101518382015260200161019e565b50505050905090810190601f1680156101e35780820380516001836020036101000a031916815260200191505b509250505060405180910390f35b610248600480360360408110156102325762461bcd60e51b6000908152602060045260126024526000805160206112c9833981519152604490815290606490fd5b506001600160a01b0381351690602001356106e5565b604080519115158252519081900360200190f35b610264610703565b60408051918252519081900360200190f35b61027e610709565b604080516001600160a01b039092168252519081900360200190f35b610248600480360360608110156102db5762461bcd60e51b6000908152602060045260126024526000805160206112c9833981519152604490815290606490fd5b506001600160a01b03813581169160208101359091169060400135610718565b6103526004803603604081101561033c5762461bcd60e51b6000908152602060045260126024526000805160206112c9833981519152604490815290606490fd5b506001600160a01b03813516906020013561079f565b60405180836001600160801b03168152602001826001600160801b031681526020019250505060405180910390f35b6103896107d0565b6040805160ff9092168252519081900360200190f35b610248600480360360408110156103e05762461bcd60e51b6000908152602060045260126024526000805160206112c9833981519152604490815290606490fd5b506001600160a01b0381351690602001356107d9565b610264600480360360208110156104375762461bcd60e51b6000908152602060045260126024526000805160206112c9833981519152604490815290606490fd5b50356001600160a01b0316610827565b610264600480360360408110156104885762461bcd60e51b6000908152602060045260126024526000805160206112c9833981519152604490815290606490fd5b506001600160a01b038135169060200135610842565b610264600480360360208110156104df5762461bcd60e51b6000908152602060045260126024526000805160206112c9833981519152604490815290606490fd5b50356001600160a01b0316610a5c565b61017c610a6e565b610248600480360360408110156105385762461bcd60e51b6000908152602060045260126024526000805160206112c9833981519152604490815290606490fd5b506001600160a01b038135169060200135610acf565b6102486004803603604081101561058f5762461bcd60e51b6000908152602060045260126024526000805160206112c9833981519152604490815290606490fd5b506001600160a01b038135169060200135610b37565b610264600480360360208110156105e65762461bcd60e51b6000908152602060045260126024526000805160206112c9833981519152604490815290606490fd5b50356001600160a01b0316610b4b565b610264600480360360408110156106375762461bcd60e51b6000908152602060045260126024526000805160206112c9833981519152604490815290606490fd5b506001600160a01b0381358116916020013516610bb9565b60038054604080516020601f60026000196101006001881615020190951694909404938401819004810282018101909252828152606093909290918301828280156106db5780601f106106b0576101008083540402835291602001916106db565b820191906000526020600020905b8154815290600101906020018083116106be57829003601f168201915b5050505050905090565b60006106f96106f2610be4565b8484610be8565b5060015b92915050565b60025490565b6008546001600160a01b031681565b6000610725848484610cd4565b61079584610731610be4565b610790856040518060600160405280602881526020016112e9602891396001600160a01b038a1660009081526001602052604081209061076f610be4565b6001600160a01b031681526020810191909152604001600020549190610e2f565b610be8565b5060019392505050565b60066020908152600092835260408084209091529082529020546001600160801b0380821691600160801b90041682565b60055460ff1690565b60006106f96107e6610be4565b8461079085600160006107f7610be4565b6001600160a01b03908116825260208083019390935260409182016000908120918c168152925290205490610ec6565b6001600160a01b031660009081526020819052604090205490565b600042821061088d576040805162461bcd60e51b81526020600482015260126024820152711b9bdd081e595d0819195d195c9b5a5b995960721b604482015290519081900360640190fd5b6001600160a01b038316600090815260076020526040902054806108b55760009150506106fd565b6001600160a01b0384166000908152600660209081526040808320600019850184529091529020546001600160801b0316831061092c576001600160a01b0384166000908152600660209081526040808320600019909401835292905220546001600160801b03600160801b9091041690506106fd565b6001600160a01b03841660009081526006602090815260408083208380529091529020546001600160801b031683101561096a5760009150506106fd565b600060001982015b81811115610a1e57600282820304810361098a611246565b506001600160a01b03871660009081526006602090815260408083208484528252918290208251808401909352546001600160801b03808216808552600160801b90920416918301919091528714156109f657602001516001600160801b031694506106fd9350505050565b80516001600160801b0316871115610a1057819350610a17565b6001820392505b5050610972565b506001600160a01b038516600090815260066020908152604080832093835292905220546001600160801b03600160801b9091041691505092915050565b60076020526000908152604090205481565b60048054604080516020601f60026000196101006001881615020190951694909404938401819004810282018101909252828152606093909290918301828280156106db5780601f106106b0576101008083540402835291602001916106db565b60006106f9610adc610be4565b846107908560405180606001604052806025815260200161135a6025913960016000610b06610be4565b6001600160a01b03908116825260208083019390935260409182016000908120918d16815292529020549190610e2f565b60006106f9610b44610be4565b8484610cd4565b6001600160a01b03811660009081526007602052604081205480610b70576000610ba9565b6001600160a01b038316600090815260066020908152604080832060001985018452909152902054600160801b90046001600160801b03165b6001600160801b03169392505050565b6001600160a01b03918216600090815260016020908152604080832093909416825291909152205490565b3390565b6001600160a01b038316610c2d5760405162461bcd60e51b81526004018080602001828103825260248152602001806113366024913960400191505060405180910390fd5b6001600160a01b038216610c725760405162461bcd60e51b81526004018080602001828103825260228152602001806112816022913960400191505060405180910390fd5b6001600160a01b03808416600081815260016020908152604080832094871680845294825291829020859055815185815291517f8c5be1e5ebec7d5bd14f71427d1e84f3dd0314c0f7b2291e5b200ac8c7c3b9259281900390910190a3505050565b6001600160a01b038316610d195760405162461bcd60e51b81526004018080602001828103825260258152602001806113116025913960400191505060405180910390fd5b6001600160a01b038216610d5e5760405162461bcd60e51b815260040180806020018281038252602381526020018061125e6023913960400191505060405180910390fd5b610d69838383610f25565b610da6816040518060600160405280602681526020016112a3602691396001600160a01b0386166000908152602081905260409020549190610e2f565b6001600160a01b038085166000908152602081905260408082209390935590841681522054610dd59082610ec6565b6001600160a01b038084166000818152602081815260409182902094909455805185815290519193928716927fddf252ad1be2c89b69c2b068fc378daa952ba7f163c4a11628f55a4df523b3ef92918290030190a3505050565b60008184841115610ebe5760405162461bcd60e51b81526004018080602001828103825283818151815260200191508051906020019080838360005b83811015610e83578181015183820152602001610e6b565b50505050905090810190601f168015610eb05780820380516001836020036101000a031916815260200191505b509250505060405180910390fd5b505050900390565b600082820183811015610f1e576040805162461bcd60e51b815260206004820152601b60248201527a536166654d6174683a206164646974696f6e206f766572666c6f7760281b604482015290519081900360640190fd5b9392505050565b816001600160a01b0316836001600160a01b03161415610f4457611081565b6001600160a01b03831615610f76576000610f5e84610827565b9050610f748482610f6f8186611086565b6110c8565b505b6001600160a01b03821615610fa3576000610f9083610827565b9050610fa18382610f6f8186610ec6565b505b6008546001600160a01b0316801561107f57806001600160a01b0316634a3931498585856040518463ffffffff1660e01b815260040180846001600160a01b03168152602001836001600160a01b031681526020018281526020019350505050600060405180830381600087803b1580156110665762461bcd60e51b6000908152602060045260256024527f54617267657420636f6e747261637420646f6573206e6f7420636f6e7461696e60449081526420636f646560d81b60645290608490fd5b505af115801561107a573d6000803e3d6000fd5b505050505b505b505050565b6000610f1e83836040518060400160405280601e81526020017f536166654d6174683a207375627472616374696f6e206f766572666c6f770000815250610e2f565b6001600160a01b0383166000908152600760209081526040808320546006909252909120429190811580159061112d57506001600160801b038316816000611111856001611086565b81526020810191909152604001600020546001600160801b0316145b156111715783816000611141856001611086565b8152602081019190915260400160002080546001600160801b03928316600160801b0292169190911790556111ec565b6040805180820182526001600160801b0380861682528681166020808401918252600087815290869052939093209151825493518216600160801b029082166001600160801b031990941693909317169190911790556111d2826001610ec6565b6001600160a01b0387166000908152600760205260409020555b604080516001600160a01b03881681526001600160801b03808816602083015286168183015290517f2cd3c83ddac2953ee75f53265d9ea4463eaf05030e5459a1b7e63819b7ce88f79181900360600190a1505050505050565b60408051808201909152600080825260208201529056fe45524332303a207472616e7366657220746f20746865207a65726f206164647265737345524332303a20617070726f766520746f20746865207a65726f206164647265737345524332303a207472616e7366657220616d6f756e7420657863656564732062616c616e636543616c6c6461746120746f6f2073686f7274000000000000000000000000000045524332303a207472616e7366657220616d6f756e74206578636565647320616c6c6f77616e636545524332303a207472616e736665722066726f6d20746865207a65726f206164647265737345524332303a20617070726f76652066726f6d20746865207a65726f206164647265737345524332303a2064656372656173656420616c6c6f77616e63652062656c6f77207a65726fa26469706673582212207c422169aaaa0b46ab5940040576c17fcf072ae6085a57e9730a06dd33be290c64736f6c634300060c0033","linkReferences":{}},"methodIdentifiers":{"_countsSnapshots(address)":"8779588c","_governance()":"1c2f3e3d","_snapshots(address,uint256)":"2acbf823","allowance(address,address)":"dd62ed3e","approve(address,uint256)":"095ea7b3","balanceOf(address)":"70a08231","decimals()":"313ce567","decreaseAllowance(address,uint256)":"a457c2d7","getCurrentVotes(address)":"b4b5ea57","getPriorVotes(address,uint256)":"782d6fe1","increaseAllowance(address,uint256)":"39509351","name()":"06fdde03","symbol()":"95d89b41","totalSupply()":"18160ddd","transfer(address,uint256)":"a9059cbb","transferFrom(address,address,uint256)":"23b872dd"},"id":5}