{"abi":[{"type":"function","name":"ECOSYSTEM_RESERVE","inputs":[],"outputs":[{"name":"","type":"address","internalType":"contract IEcosystemReserve"}],"stateMutability":"view"},{"type":"function","name":"approve","inputs":[{"name":"token","type":"address","internalType":"contract IERC20"},{"name":"recipient","type":"address","internalType":"address"},{"name":"amount","type":"uint256","internalType":"uint256"}],"outputs":[],"stateMutability":"nonpayable"},{"type":"function","name":"initialized","inputs":[],"outputs":[{"name":"","type":"bool","internalType":"bool"}],"stateMutability":"view"},{"type":"function","name":"owner","inputs":[],"outputs":[{"name":"","type":"address","internalType":"address"}],"stateMutability":"view"},{"type":"function","name":"renounceOwnership","inputs":[],"outputs":[],"stateMutability":"nonpayable"},{"type":"function","name":"setEcosystemReserve","inputs":[{"name":"ecosystemReserve","type":"address","internalType":"address"}],"outputs":[],"stateMutability":"nonpayable"},{"type":"function","name":"setFundsAdmin","inputs":[{"name":"admin","type":"address","internalType":"address"}],"outputs":[],"stateMutability":"nonpayable"},{"type":"function","name":"transfer","inputs":[{"name":"token","type":"address","internalType":"contract IERC20"},{"name":"recipient","type":"address","internalType":"address"},{"name":"amount","type":"uint256","internalType":"uint256"}],"outputs":[],"stateMutability":"nonpayable"},{"type":"function","name":"transferOwnership","inputs":[{"name":"newOwner","type":"address","internalType":"address"}],"outputs":[],"stateMutability":"nonpayable"},{"type":"event","name":"OwnershipTransferred","inputs":[{"name":"previousOwner","type":"address","indexed":true,"internalType":"address"},{"name":"newOwner","type":"address","indexed":true,"internalType":"address"}],"anonymous":false}],"bytecode":{"object":"0x60806040523480156100565762461bcd60e51b6000908152602060045260226024527f45746865722073656e7420746f206e6f6e2d70617961626c652066756e63746960449081526137b760f11b60645290608490fd5b5060006100616100b0565b600080546001600160a01b0319166001600160a01b0383169081178255604051929350917f8be0079c531659141344cd1fd0a4f28419497f9722a3daafe3b4186f6b6457e0908290a3506100b4565b3390565b61099a806100c36000396000f3fe60806040523480156100565762461bcd60e51b6000908152602060045260226024527f45746865722073656e7420746f206e6f6e2d70617961626c652066756e63746960449081526137b760f11b60645290608490fd5b50600436106100c95760003560e01c8063158ef93e146101275780634f8d232314610143578063715018a6146101675780638da5cb5b14610171578063be98900014610179578063beabacc8146101d1578063e1f21c6714610239578063ed0d2371146102a1578063f2fde38b146102f9575b62461bcd60e51b6000908152602060045260356024527f436f6e747261637420646f6573206e6f7420686176652066616c6c6261636b206044908152746e6f7220726563656976652066756e6374696f6e7360581b60645290608490fd5b61012f610351565b604080519115158252519081900360200190f35b61014b610361565b604080516001600160a01b039092168252519081900360200190f35b61016f610370565b005b61014b610400565b61016f600480360360208110156101c15762461bcd60e51b6000908152602060045260126024527110d85b1b19185d18481d1bdbc81cda1bdc9d60721b604490815290606490fd5b50356001600160a01b031661040f565b61016f600480360360608110156102195762461bcd60e51b6000908152602060045260126024527110d85b1b19185d18481d1bdbc81cda1bdc9d60721b604490815290606490fd5b506001600160a01b038135811691602081013590911690604001356104e1565b61016f600480360360608110156102815762461bcd60e51b6000908152602060045260126024527110d85b1b19185d18481d1bdbc81cda1bdc9d60721b604490815290606490fd5b506001600160a01b038135811691602081013590911690604001356105ea565b61016f600480360360208110156102e95762461bcd60e51b6000908152602060045260126024527110d85b1b19185d18481d1bdbc81cda1bdc9d60721b604490815290606490fd5b50356001600160a01b03166106d6565b61016f600480360360208110156103415762461bcd60e51b6000908152602060045260126024527110d85b1b19185d18481d1bdbc81cda1bdc9d60721b604490815290606490fd5b50356001600160a01b03166107ce565b600154600160a01b900460ff1681565b6001546001600160a01b031681565b6103786108b4565b6000546001600160a01b039081169116146103c8576040805162461bcd60e51b81526020600482018190526024820152600080516020610925833981519152604482015290519081900360640190fd5b600080546040516001600160a01b0390911690600080516020610945833981519152908390a3600080546001600160a01b0319169055565b6000546001600160a01b031690565b6104176108b4565b6000546001600160a01b03908116911614610467576040805162461bcd60e51b81526020600482018190526024820152600080516020610925833981519152604482015290519081900360640190fd5b600154600160a01b900460ff16156104b05760405162461bcd60e51b81526004018080602001828103825260268152602001806108ff6026913960400191505060405180910390fd5b60018054600160a01b60ff60a01b19909116176001600160a01b0319166001600160a01b0392909216919091179055565b6104e96108b4565b6000546001600160a01b03908116911614610539576040805162461bcd60e51b81526020600482018190526024820152600080516020610925833981519152604482015290519081900360640190fd5b600154604080516317d5759960e31b81526001600160a01b0386811660048301528581166024830152604482018590529151919092169163beabacc891606480830192600092919082900301818387803b1580156105cd5762461bcd60e51b6000908152602060045260256024526000805160206108df83398151915260449081526420636f646560d81b60645290608490fd5b505af11580156105e1573d6000803e3d6000fd5b50505050505050565b6105f26108b4565b6000546001600160a01b03908116911614610642576040805162461bcd60e51b81526020600482018190526024820152600080516020610925833981519152604482015290519081900360640190fd5b6001546040805163e1f21c6760e01b81526001600160a01b0386811660048301528581166024830152604482018590529151919092169163e1f21c6791606480830192600092919082900301818387803b1580156105cd5762461bcd60e51b6000908152602060045260256024526000805160206108df83398151915260449081526420636f646560d81b60645290608490fd5b6106de6108b4565b6000546001600160a01b0390811691161461072e576040805162461bcd60e51b81526020600482018190526024820152600080516020610925833981519152604482015290519081900360640190fd5b6001546040805163ed0d237160e01b81526001600160a01b0384811660048301529151919092169163ed0d237191602480830192600092919082900301818387803b1580156107b35762461bcd60e51b6000908152602060045260256024526000805160206108df83398151915260449081526420636f646560d81b60645290608490fd5b505af11580156107c7573d6000803e3d6000fd5b5050505050565b6107d66108b4565b6000546001600160a01b03908116911614610826576040805162461bcd60e51b81526020600482018190526024820152600080516020610925833981519152604482015290519081900360640190fd5b6001600160a01b03811661086b5760405162461bcd60e51b81526004018080602001828103825260268152602001806108b96026913960400191505060405180910390fd5b600080546040516001600160a01b038085169392169160008051602061094583398151915291a3600080546001600160a01b0319166001600160a01b0392909216919091179055565b339056fe4f776e61626c653a206e6577206f776e657220697320746865207a65726f206164647265737354617267657420636f6e747261637420646f6573206e6f7420636f6e7461696e45434f53595354454d5f5245534552564520686173206265656e20696e697469616c697a65644f776e61626c653a2063616c6c6572206973206e6f7420746865206f776e65728be0079c531659141344cd1fd0a4f28419497f9722a3daafe3b4186f6b6457e0a264697066735822122021bf85640bb69fa638ed5809e6b467c2a383cc91c29995c9dff620b09c3fae9f64736f6c634300060c0033","linkReferences":{}},"methodIdentifiers":{"ECOSYSTEM_RESERVE()":"4f8d2323","approve(address,address,uint256)":"e1f21c67","initialized()":"158ef93e","owner()":"8da5cb5b","renounceOwnership()":"715018a6","setEcosystemReserve(address)":"be989000","setFundsAdmin(address)":"ed0d2371","transfer(address,address,uint256)":"beabacc8","transferOwnership(address)":"f2fde38b"},"id":7}